{
  "contractName": "ERC20Rewards",
  "abi": [
    {
      "inputs": [
        {
          "internalType": "string",
          "name": "name",
          "type": "string"
        },
        {
          "internalType": "string",
          "name": "symbol",
          "type": "string"
        },
        {
          "internalType": "uint8",
          "name": "decimals",
          "type": "uint8"
        },
        {
          "internalType": "contract IERC20",
          "name": "rewardsToken_",
          "type": "address"
        }
      ],
      "stateMutability": "nonpayable",
      "type": "constructor"
    },
    {
      "anonymous": false,
      "inputs": [
        {
          "indexed": true,
          "internalType": "address",
          "name": "owner",
          "type": "address"
        },
        {
          "indexed": true,
          "internalType": "address",
          "name": "spender",
          "type": "address"
        },
        {
          "indexed": false,
          "internalType": "uint256",
          "name": "value",
          "type": "uint256"
        }
      ],
      "name": "Approval",
      "type": "event"
    },
    {
      "anonymous": false,
      "inputs": [
        {
          "indexed": false,
          "internalType": "address",
          "name": "receiver",
          "type": "address"
        },
        {
          "indexed": false,
          "internalType": "uint256",
          "name": "claimed",
          "type": "uint256"
        }
      ],
      "name": "Claimed",
      "type": "event"
    },
    {
      "anonymous": false,
      "inputs": [
        {
          "indexed": false,
          "internalType": "uint256",
          "name": "accumulated",
          "type": "uint256"
        }
      ],
      "name": "RewardsPerTokenUpdated",
      "type": "event"
    },
    {
      "anonymous": false,
      "inputs": [
        {
          "indexed": false,
          "internalType": "uint32",
          "name": "start",
          "type": "uint32"
        },
        {
          "indexed": false,
          "internalType": "uint32",
          "name": "end",
          "type": "uint32"
        },
        {
          "indexed": false,
          "internalType": "uint256",
          "name": "rate",
          "type": "uint256"
        }
      ],
      "name": "RewardsSet",
      "type": "event"
    },
    {
      "anonymous": false,
      "inputs": [
        {
          "indexed": true,
          "internalType": "bytes4",
          "name": "role",
          "type": "bytes4"
        },
        {
          "indexed": true,
          "internalType": "bytes4",
          "name": "newAdminRole",
          "type": "bytes4"
        }
      ],
      "name": "RoleAdminChanged",
      "type": "event"
    },
    {
      "anonymous": false,
      "inputs": [
        {
          "indexed": true,
          "internalType": "bytes4",
          "name": "role",
          "type": "bytes4"
        },
        {
          "indexed": true,
          "internalType": "address",
          "name": "account",
          "type": "address"
        },
        {
          "indexed": true,
          "internalType": "address",
          "name": "sender",
          "type": "address"
        }
      ],
      "name": "RoleGranted",
      "type": "event"
    },
    {
      "anonymous": false,
      "inputs": [
        {
          "indexed": true,
          "internalType": "bytes4",
          "name": "role",
          "type": "bytes4"
        },
        {
          "indexed": true,
          "internalType": "address",
          "name": "account",
          "type": "address"
        },
        {
          "indexed": true,
          "internalType": "address",
          "name": "sender",
          "type": "address"
        }
      ],
      "name": "RoleRevoked",
      "type": "event"
    },
    {
      "anonymous": false,
      "inputs": [
        {
          "indexed": true,
          "internalType": "address",
          "name": "from",
          "type": "address"
        },
        {
          "indexed": true,
          "internalType": "address",
          "name": "to",
          "type": "address"
        },
        {
          "indexed": false,
          "internalType": "uint256",
          "name": "value",
          "type": "uint256"
        }
      ],
      "name": "Transfer",
      "type": "event"
    },
    {
      "anonymous": false,
      "inputs": [
        {
          "indexed": false,
          "internalType": "address",
          "name": "user",
          "type": "address"
        },
        {
          "indexed": false,
          "internalType": "uint256",
          "name": "userRewards",
          "type": "uint256"
        },
        {
          "indexed": false,
          "internalType": "uint256",
          "name": "paidRewardPerToken",
          "type": "uint256"
        }
      ],
      "name": "UserRewardsUpdated",
      "type": "event"
    },
    {
      "inputs": [],
      "name": "DOMAIN_SEPARATOR",
      "outputs": [
        {
          "internalType": "bytes32",
          "name": "",
          "type": "bytes32"
        }
      ],
      "stateMutability": "view",
      "type": "function"
    },
    {
      "inputs": [],
      "name": "LOCK",
      "outputs": [
        {
          "internalType": "bytes4",
          "name": "",
          "type": "bytes4"
        }
      ],
      "stateMutability": "view",
      "type": "function"
    },
    {
      "inputs": [],
      "name": "PERMIT_TYPEHASH",
      "outputs": [
        {
          "internalType": "bytes32",
          "name": "",
          "type": "bytes32"
        }
      ],
      "stateMutability": "view",
      "type": "function"
    },
    {
      "inputs": [],
      "name": "ROOT",
      "outputs": [
        {
          "internalType": "bytes4",
          "name": "",
          "type": "bytes4"
        }
      ],
      "stateMutability": "view",
      "type": "function"
    },
    {
      "inputs": [
        {
          "internalType": "address",
          "name": "owner",
          "type": "address"
        },
        {
          "internalType": "address",
          "name": "spender",
          "type": "address"
        }
      ],
      "name": "allowance",
      "outputs": [
        {
          "internalType": "uint256",
          "name": "",
          "type": "uint256"
        }
      ],
      "stateMutability": "view",
      "type": "function"
    },
    {
      "inputs": [
        {
          "internalType": "address",
          "name": "spender",
          "type": "address"
        },
        {
          "internalType": "uint256",
          "name": "wad",
          "type": "uint256"
        }
      ],
      "name": "approve",
      "outputs": [
        {
          "internalType": "bool",
          "name": "",
          "type": "bool"
        }
      ],
      "stateMutability": "nonpayable",
      "type": "function"
    },
    {
      "inputs": [
        {
          "internalType": "address",
          "name": "guy",
          "type": "address"
        }
      ],
      "name": "balanceOf",
      "outputs": [
        {
          "internalType": "uint256",
          "name": "",
          "type": "uint256"
        }
      ],
      "stateMutability": "view",
      "type": "function"
    },
    {
      "inputs": [],
      "name": "decimals",
      "outputs": [
        {
          "internalType": "uint8",
          "name": "",
          "type": "uint8"
        }
      ],
      "stateMutability": "view",
      "type": "function"
    },
    {
      "inputs": [],
      "name": "deploymentChainId",
      "outputs": [
        {
          "internalType": "uint256",
          "name": "",
          "type": "uint256"
        }
      ],
      "stateMutability": "view",
      "type": "function"
    },
    {
      "inputs": [
        {
          "internalType": "bytes4",
          "name": "role",
          "type": "bytes4"
        }
      ],
      "name": "getRoleAdmin",
      "outputs": [
        {
          "internalType": "bytes4",
          "name": "",
          "type": "bytes4"
        }
      ],
      "stateMutability": "view",
      "type": "function"
    },
    {
      "inputs": [
        {
          "internalType": "bytes4",
          "name": "role",
          "type": "bytes4"
        },
        {
          "internalType": "address",
          "name": "account",
          "type": "address"
        }
      ],
      "name": "grantRole",
      "outputs": [],
      "stateMutability": "nonpayable",
      "type": "function"
    },
    {
      "inputs": [
        {
          "internalType": "bytes4[]",
          "name": "roles",
          "type": "bytes4[]"
        },
        {
          "internalType": "address",
          "name": "account",
          "type": "address"
        }
      ],
      "name": "grantRoles",
      "outputs": [],
      "stateMutability": "nonpayable",
      "type": "function"
    },
    {
      "inputs": [
        {
          "internalType": "bytes4",
          "name": "role",
          "type": "bytes4"
        },
        {
          "internalType": "address",
          "name": "account",
          "type": "address"
        }
      ],
      "name": "hasRole",
      "outputs": [
        {
          "internalType": "bool",
          "name": "",
          "type": "bool"
        }
      ],
      "stateMutability": "view",
      "type": "function"
    },
    {
      "inputs": [
        {
          "internalType": "bytes4",
          "name": "role",
          "type": "bytes4"
        }
      ],
      "name": "lockRole",
      "outputs": [],
      "stateMutability": "nonpayable",
      "type": "function"
    },
    {
      "inputs": [],
      "name": "name",
      "outputs": [
        {
          "internalType": "string",
          "name": "",
          "type": "string"
        }
      ],
      "stateMutability": "view",
      "type": "function"
    },
    {
      "inputs": [
        {
          "internalType": "address",
          "name": "",
          "type": "address"
        }
      ],
      "name": "nonces",
      "outputs": [
        {
          "internalType": "uint256",
          "name": "",
          "type": "uint256"
        }
      ],
      "stateMutability": "view",
      "type": "function"
    },
    {
      "inputs": [
        {
          "internalType": "address",
          "name": "owner",
          "type": "address"
        },
        {
          "internalType": "address",
          "name": "spender",
          "type": "address"
        },
        {
          "internalType": "uint256",
          "name": "amount",
          "type": "uint256"
        },
        {
          "internalType": "uint256",
          "name": "deadline",
          "type": "uint256"
        },
        {
          "internalType": "uint8",
          "name": "v",
          "type": "uint8"
        },
        {
          "internalType": "bytes32",
          "name": "r",
          "type": "bytes32"
        },
        {
          "internalType": "bytes32",
          "name": "s",
          "type": "bytes32"
        }
      ],
      "name": "permit",
      "outputs": [],
      "stateMutability": "nonpayable",
      "type": "function"
    },
    {
      "inputs": [
        {
          "internalType": "bytes4",
          "name": "role",
          "type": "bytes4"
        },
        {
          "internalType": "address",
          "name": "account",
          "type": "address"
        }
      ],
      "name": "renounceRole",
      "outputs": [],
      "stateMutability": "nonpayable",
      "type": "function"
    },
    {
      "inputs": [
        {
          "internalType": "bytes4",
          "name": "role",
          "type": "bytes4"
        },
        {
          "internalType": "address",
          "name": "account",
          "type": "address"
        }
      ],
      "name": "revokeRole",
      "outputs": [],
      "stateMutability": "nonpayable",
      "type": "function"
    },
    {
      "inputs": [
        {
          "internalType": "bytes4[]",
          "name": "roles",
          "type": "bytes4[]"
        },
        {
          "internalType": "address",
          "name": "account",
          "type": "address"
        }
      ],
      "name": "revokeRoles",
      "outputs": [],
      "stateMutability": "nonpayable",
      "type": "function"
    },
    {
      "inputs": [
        {
          "internalType": "address",
          "name": "",
          "type": "address"
        }
      ],
      "name": "rewards",
      "outputs": [
        {
          "internalType": "uint128",
          "name": "accumulated",
          "type": "uint128"
        },
        {
          "internalType": "uint128",
          "name": "checkpoint",
          "type": "uint128"
        }
      ],
      "stateMutability": "view",
      "type": "function"
    },
    {
      "inputs": [],
      "name": "rewardsPerToken",
      "outputs": [
        {
          "internalType": "uint128",
          "name": "accumulated",
          "type": "uint128"
        },
        {
          "internalType": "uint32",
          "name": "lastUpdated",
          "type": "uint32"
        },
        {
          "internalType": "uint96",
          "name": "rate",
          "type": "uint96"
        }
      ],
      "stateMutability": "view",
      "type": "function"
    },
    {
      "inputs": [],
      "name": "rewardsPeriod",
      "outputs": [
        {
          "internalType": "uint32",
          "name": "start",
          "type": "uint32"
        },
        {
          "internalType": "uint32",
          "name": "end",
          "type": "uint32"
        }
      ],
      "stateMutability": "view",
      "type": "function"
    },
    {
      "inputs": [],
      "name": "rewardsToken",
      "outputs": [
        {
          "internalType": "contract IERC20",
          "name": "",
          "type": "address"
        }
      ],
      "stateMutability": "view",
      "type": "function"
    },
    {
      "inputs": [
        {
          "internalType": "bytes4",
          "name": "role",
          "type": "bytes4"
        },
        {
          "internalType": "bytes4",
          "name": "adminRole",
          "type": "bytes4"
        }
      ],
      "name": "setRoleAdmin",
      "outputs": [],
      "stateMutability": "nonpayable",
      "type": "function"
    },
    {
      "inputs": [],
      "name": "symbol",
      "outputs": [
        {
          "internalType": "string",
          "name": "",
          "type": "string"
        }
      ],
      "stateMutability": "view",
      "type": "function"
    },
    {
      "inputs": [],
      "name": "totalSupply",
      "outputs": [
        {
          "internalType": "uint256",
          "name": "",
          "type": "uint256"
        }
      ],
      "stateMutability": "view",
      "type": "function"
    },
    {
      "inputs": [
        {
          "internalType": "address",
          "name": "dst",
          "type": "address"
        },
        {
          "internalType": "uint256",
          "name": "wad",
          "type": "uint256"
        }
      ],
      "name": "transfer",
      "outputs": [
        {
          "internalType": "bool",
          "name": "",
          "type": "bool"
        }
      ],
      "stateMutability": "nonpayable",
      "type": "function"
    },
    {
      "inputs": [
        {
          "internalType": "address",
          "name": "src",
          "type": "address"
        },
        {
          "internalType": "address",
          "name": "dst",
          "type": "address"
        },
        {
          "internalType": "uint256",
          "name": "wad",
          "type": "uint256"
        }
      ],
      "name": "transferFrom",
      "outputs": [
        {
          "internalType": "bool",
          "name": "",
          "type": "bool"
        }
      ],
      "stateMutability": "nonpayable",
      "type": "function"
    },
    {
      "inputs": [],
      "name": "version",
      "outputs": [
        {
          "internalType": "string",
          "name": "",
          "type": "string"
        }
      ],
      "stateMutability": "pure",
      "type": "function"
    },
    {
      "inputs": [
        {
          "internalType": "uint32",
          "name": "start",
          "type": "uint32"
        },
        {
          "internalType": "uint32",
          "name": "end",
          "type": "uint32"
        },
        {
          "internalType": "uint96",
          "name": "rate",
          "type": "uint96"
        }
      ],
      "name": "setRewards",
      "outputs": [],
      "stateMutability": "nonpayable",
      "type": "function"
    },
    {
      "inputs": [
        {
          "internalType": "address",
          "name": "to",
          "type": "address"
        }
      ],
      "name": "claim",
      "outputs": [
        {
          "internalType": "uint256",
          "name": "claiming",
          "type": "uint256"
        }
      ],
      "stateMutability": "nonpayable",
      "type": "function"
    }
  ],
  "bytecode": "0x6101006040526040518060400160405280600381526020017f3f3f3f0000000000000000000000000000000000000000000000000000000000815250600490805190602001906200005292919062000659565b506040518060400160405280600381526020017f3f3f3f000000000000000000000000000000000000000000000000000000000081525060059080519060200190620000a092919062000659565b506012600660006101000a81548160ff021916908360ff1602179055507f6e71edae12b1b97f4d1f60370fef10105fa2faae0126114a169c64845d6126c9608090815250348015620000f157600080fd5b5060405162004772380380620047728339818101604052810190620001179190620007a9565b83838382828262000133600060e01b336200020d60201b60201c565b6200015363ffffffff60e01b63ffffffff60e01b6200034c60201b60201c565b82600490805190602001906200016b92919062000659565b5081600590805190602001906200018492919062000659565b5080600660006101000a81548160ff021916908360ff16021790555050505060004690508060c08181525050620001c1816200048260201b60201c565b60a08181525050505050508073ffffffffffffffffffffffffffffffffffffffff1660e08173ffffffffffffffffffffffffffffffffffffffff1660601b815250505050505062000b69565b6200021f82826200050a60201b60201c565b62000348576001600080847bffffffffffffffffffffffffffffffffffffffffffffffffffffffff19167bffffffffffffffffffffffffffffffffffffffffffffffffffffffff1916815260200190815260200160002060000160008373ffffffffffffffffffffffffffffffffffffffff1673ffffffffffffffffffffffffffffffffffffffff16815260200190815260200160002060006101000a81548160ff0219169083151502179055503373ffffffffffffffffffffffffffffffffffffffff168173ffffffffffffffffffffffffffffffffffffffff16837bffffffffffffffffffffffffffffffffffffffffffffffffffffffff19167fe6231789d19137da31d0550f4ba9ee379020a8cfb64cb79bf1790c996d2e616560405160405180910390a45b5050565b807bffffffffffffffffffffffffffffffffffffffffffffffffffffffff19166200037d83620005b260201b60201c565b7bffffffffffffffffffffffffffffffffffffffffffffffffffffffff1916146200047e5780600080847bffffffffffffffffffffffffffffffffffffffffffffffffffffffff19167bffffffffffffffffffffffffffffffffffffffffffffffffffffffff1916815260200190815260200160002060010160006101000a81548163ffffffff021916908360e01c0217905550807bffffffffffffffffffffffffffffffffffffffffffffffffffffffff1916827bffffffffffffffffffffffffffffffffffffffffffffffffffffffff19167fd348e2220a50b4500ec353f6e802d2f14dd1b5d6786148fd1bbcc570bf92d47360405160405180910390a35b5050565b60007f8b73c3c69bb8fe3d512ecc4cf759cc79239f7b179b0ffacaa9a75d522b39400f6004604051620004b6919062000905565b6040518091039020620004ce6200061c60201b60201c565b805190602001208430604051602001620004ed9594939291906200091e565b604051602081830303815290604052805190602001209050919050565b6000806000847bffffffffffffffffffffffffffffffffffffffffffffffffffffffff19167bffffffffffffffffffffffffffffffffffffffffffffffffffffffff1916815260200190815260200160002060000160008373ffffffffffffffffffffffffffffffffffffffff1673ffffffffffffffffffffffffffffffffffffffff16815260200190815260200160002060009054906101000a900460ff16905092915050565b6000806000837bffffffffffffffffffffffffffffffffffffffffffffffffffffffff19167bffffffffffffffffffffffffffffffffffffffffffffffffffffffff1916815260200190815260200160002060010160009054906101000a900460e01b9050919050565b60606040518060400160405280600181526020017f3100000000000000000000000000000000000000000000000000000000000000815250905090565b828054620006679062000aa1565b90600052602060002090601f0160209004810192826200068b5760008555620006d7565b82601f10620006a657805160ff1916838001178555620006d7565b82800160010185558215620006d7579182015b82811115620006d6578251825591602001919060010190620006b9565b5b509050620006e69190620006ea565b5090565b5b8082111562000705576000816000905550600101620006eb565b5090565b6000620007206200071a84620009af565b6200097b565b9050828152602081018484840111156200073957600080fd5b6200074684828562000a6b565b509392505050565b6000815190506200075f8162000b35565b92915050565b600082601f8301126200077757600080fd5b81516200078984826020860162000709565b91505092915050565b600081519050620007a38162000b4f565b92915050565b60008060008060808587031215620007c057600080fd5b600085015167ffffffffffffffff811115620007db57600080fd5b620007e98782880162000765565b945050602085015167ffffffffffffffff8111156200080757600080fd5b620008158782880162000765565b9350506040620008288782880162000792565b92505060606200083b878288016200074e565b91505092959194509250565b620008528162000a02565b82525050565b620008638162000a16565b82525050565b60008154620008788162000aa1565b620008848186620009f7565b94506001821660008114620008a25760018114620008b457620008eb565b60ff19831686528186019350620008eb565b620008bf85620009e2565b60005b83811015620008e357815481890152600182019150602081019050620008c2565b838801955050505b50505092915050565b620008ff8162000a54565b82525050565b600062000913828462000869565b915081905092915050565b600060a08201905062000935600083018862000858565b62000944602083018762000858565b62000953604083018662000858565b620009626060830185620008f4565b62000971608083018462000847565b9695505050505050565b6000604051905081810181811067ffffffffffffffff82111715620009a557620009a462000b06565b5b8060405250919050565b600067ffffffffffffffff821115620009cd57620009cc62000b06565b5b601f19601f8301169050602081019050919050565b60008190508160005260206000209050919050565b600081905092915050565b600062000a0f8262000a34565b9050919050565b6000819050919050565b600062000a2d8262000a02565b9050919050565b600073ffffffffffffffffffffffffffffffffffffffff82169050919050565b6000819050919050565b600060ff82169050919050565b60005b8381101562000a8b57808201518184015260208101905062000a6e565b8381111562000a9b576000848401525b50505050565b6000600282049050600182168062000aba57607f821691505b6020821081141562000ad15762000ad062000ad7565b5b50919050565b7f4e487b7100000000000000000000000000000000000000000000000000000000600052602260045260246000fd5b7f4e487b7100000000000000000000000000000000000000000000000000000000600052604160045260246000fd5b62000b408162000a20565b811462000b4c57600080fd5b50565b62000b5a8162000a5e565b811462000b6657600080fd5b50565b60805160a05160c05160e05160601c613ba962000bc960003960008181610820015261105501526000818161093401528181611031015261116b01526000818161096901526111a00152600081816108f701526110c30152613ba96000f3fe608060405234801561001057600080fd5b50600436106101f05760003560e01c8063687f0e4c1161010f578063ad82110f116100a2578063d505accf11610071578063d505accf146105d7578063dd62ed3e146105f3578063de02cde714610623578063effae3531461063f576101f0565b8063ad82110f14610563578063ae93c1b51461057f578063cd0d00961461059b578063d1af0c7d146105b9576101f0565b806395d89b41116100de57806395d89b41146104db578063a354f39e146104f9578063a4f0d7d014610515578063a9059cbb14610533576101f0565b8063687f0e4c1461043f57806370641a361461045b57806370a082311461047b5780637ecebe00146104ab576101f0565b806330adf81f1161018757806354fd4d501161015657806354fd4d50146103b7578063559742d9146103d55780635909c12f146103f15780635ba5e9f01461040f576101f0565b806330adf81f14610341578063313ce5671461035f5780633644e5151461037d57806344faded01461039b576101f0565b806318160ddd116101c357806318160ddd146102a45780631e83409a146102c257806323b872dd146102f257806326ae2b7814610322576101f0565b806306fdde03146101f55780630700037d14610213578063095ea7b31461024457806310ab943214610274575b600080fd5b6101fd61065b565b60405161020a9190613384565b60405180910390f35b61022d600480360381019061022891906129aa565b6106e9565b60405161023b929190613501565b60405180910390f35b61025e60048036038101906102599190612afc565b610745565b60405161026b919061321f565b60405180910390f35b61028e60048036038101906102899190612bde565b61075a565b60405161029b919061321f565b60405180910390f35b6102ac61076e565b6040516102b99190613561565b60405180910390f35b6102dc60048036038101906102d791906129aa565b610778565b6040516102e99190613561565b60405180910390f35b61030c60048036038101906103079190612a0f565b6108a2565b604051610319919061321f565b60405180910390f35b61032a6108c3565b60405161033892919061357c565b60405180910390f35b6103496108f5565b604051610356919061323a565b60405180910390f35b610367610919565b60405161037491906135dc565b60405180910390f35b61038561092c565b604051610392919061323a565b60405180910390f35b6103b560048036038101906103b09190612bde565b61098f565b005b6103bf6109f0565b6040516103cc9190613384565b60405180910390f35b6103ef60048036038101906103ea9190612bb5565b610a2d565b005b6103f9610a94565b604051610406919061334e565b60405180910390f35b61042960048036038101906104249190612bb5565b610a9c565b604051610436919061334e565b60405180910390f35b61045960048036038101906104549190612bde565b610aae565b005b610463610b2a565b6040516104729392919061352a565b60405180910390f35b610495600480360381019061049091906129aa565b610b86565b6040516104a29190613561565b60405180910390f35b6104c560048036038101906104c091906129aa565b610bcf565b6040516104d29190613561565b60405180910390f35b6104e3610be7565b6040516104f09190613384565b60405180910390f35b610513600480360381019061050e9190612c97565b610c75565b005b61051d610eaf565b60405161052a919061334e565b60405180910390f35b61054d60048036038101906105489190612afc565b610eba565b60405161055a919061321f565b60405180910390f35b61057d60048036038101906105789190612b38565b610ecf565b005b61059960048036038101906105949190612c1a565b610fce565b005b6105a361102f565b6040516105b09190613561565b60405180910390f35b6105c1611053565b6040516105ce9190613369565b60405180910390f35b6105f160048036038101906105ec9190612a5e565b611077565b005b61060d600480360381019061060891906129d3565b6112fd565b60405161061a9190613561565b60405180910390f35b61063d60048036038101906106389190612bde565b611384565b005b61065960048036038101906106549190612b38565b6113e5565b005b6004805461066890613969565b80601f016020809104026020016040519081016040528092919081815260200182805461069490613969565b80156106e15780601f106106b6576101008083540402835291602001916106e1565b820191906000526020600020905b8154815290600101906020018083116106c457829003601f168201915b505050505081565b600a6020528060005260406000206000915090508060000160009054906101000a90046fffffffffffffffffffffffffffffffff16908060000160109054906101000a90046fffffffffffffffffffffffffffffffff16905082565b60006107523384846114e4565b905092915050565b600061076683836115d7565b905092915050565b6000600154905090565b600061078261167f565b61078b336119ac565b6fffffffffffffffffffffffffffffffff1690506000600a60003373ffffffffffffffffffffffffffffffffffffffff1673ffffffffffffffffffffffffffffffffffffffff16815260200190815260200160002060000160006101000a8154816fffffffffffffffffffffffffffffffff02191690836fffffffffffffffffffffffffffffffff16021790555061086482827f000000000000000000000000000000000000000000000000000000000000000073ffffffffffffffffffffffffffffffffffffffff16611d6f9092919063ffffffff16565b7fd8138f8a3f377c5259ca548e70e4c2de94f129f5a11036a15b69513cba2b426a82826040516108959291906131f6565b60405180910390a1919050565b60006108ae8483611ece565b506108ba848484612009565b90509392505050565b60088060000160009054906101000a900463ffffffff16908060000160049054906101000a900463ffffffff16905082565b7f000000000000000000000000000000000000000000000000000000000000000081565b600660009054906101000a900460ff1681565b6000804690507f00000000000000000000000000000000000000000000000000000000000000008114610967576109628161203b565b610989565b7f00000000000000000000000000000000000000000000000000000000000000005b91505090565b816109a261099c826120b7565b336115d7565b6109e1576040517f08c379a00000000000000000000000000000000000000000000000000000000081526004016109d890613406565b60405180910390fd5b6109eb8383612121565b505050565b60606040518060400160405280600181526020017f3100000000000000000000000000000000000000000000000000000000000000815250905090565b80610a40610a3a826120b7565b336115d7565b610a7f576040517f08c379a0000000000000000000000000000000000000000000000000000000008152600401610a7690613406565b60405180910390fd5b610a908263ffffffff60e01b612258565b5050565b600060e01b81565b6000610aa7826120b7565b9050919050565b3373ffffffffffffffffffffffffffffffffffffffff168173ffffffffffffffffffffffffffffffffffffffff1614610b1c576040517f08c379a0000000000000000000000000000000000000000000000000000000008152600401610b1390613486565b60405180910390fd5b610b268282612121565b5050565b60098060000160009054906101000a90046fffffffffffffffffffffffffffffffff16908060000160109054906101000a900463ffffffff16908060000160149054906101000a90046bffffffffffffffffffffffff16905083565b6000600260008373ffffffffffffffffffffffffffffffffffffffff1673ffffffffffffffffffffffffffffffffffffffff168152602001908152602001600020549050919050565b60076020528060005260406000206000915090505481565b60058054610bf490613969565b80601f0160208091040260200160405190810160405280929190818152602001828054610c2090613969565b8015610c6d5780601f10610c4257610100808354040283529160200191610c6d565b820191906000526020600020905b815481529060010190602001808311610c5057829003601f168201915b505050505081565b610ca36000357fffffffff0000000000000000000000000000000000000000000000000000000016336115d7565b610ce2576040517f08c379a0000000000000000000000000000000000000000000000000000000008152600401610cd9906134a6565b60405180910390fd5b8163ffffffff168363ffffffff161115610d31576040517f08c379a0000000000000000000000000000000000000000000000000000000008152600401610d2890613446565b60405180910390fd5b600860000160009054906101000a900463ffffffff1663ffffffff16610d5642612385565b63ffffffff161080610d905750600860000160049054906101000a900463ffffffff1663ffffffff16610d8842612385565b63ffffffff16115b610dcf576040517f08c379a0000000000000000000000000000000000000000000000000000000008152600401610dc6906134c6565b60405180910390fd5b82600860000160006101000a81548163ffffffff021916908363ffffffff16021790555081600860000160046101000a81548163ffffffff021916908363ffffffff16021790555082600960000160106101000a81548163ffffffff021916908363ffffffff16021790555080600960000160146101000a8154816bffffffffffffffffffffffff02191690836bffffffffffffffffffffffff1602179055507f95efd8a2a0aa591f48fd9673cf5d13c2150ca7a1fe1cbe438dd3f0ae47064663838383604051610ea2939291906135a5565b60405180910390a1505050565b63ffffffff60e01b81565b6000610ec7338484612009565b905092915050565b60005b8251811015610fc957610f2d610f27848381518110610f1a577f4e487b7100000000000000000000000000000000000000000000000000000000600052603260045260246000fd5b60200260200101516120b7565b336115d7565b610f6c576040517f08c379a0000000000000000000000000000000000000000000000000000000008152600401610f6390613406565b60405180910390fd5b610fb6838281518110610fa8577f4e487b7100000000000000000000000000000000000000000000000000000000600052603260045260246000fd5b602002602001015183612121565b8080610fc19061399b565b915050610ed2565b505050565b81610fe1610fdb826120b7565b336115d7565b611020576040517f08c379a000000000000000000000000000000000000000000000000000000000815260040161101790613406565b60405180910390fd5b61102a8383612258565b505050565b7f000000000000000000000000000000000000000000000000000000000000000081565b7f000000000000000000000000000000000000000000000000000000000000000081565b428410156110ba576040517f08c379a00000000000000000000000000000000000000000000000000000000081526004016110b1906133c6565b60405180910390fd5b600046905060007f0000000000000000000000000000000000000000000000000000000000000000898989600760008e73ffffffffffffffffffffffffffffffffffffffff1673ffffffffffffffffffffffffffffffffffffffff16815260200190815260200160002060008154809291906111359061399b565b919050558a60405160200161114f96959493929190613255565b60405160208183030381529060405280519060200120905060007f0000000000000000000000000000000000000000000000000000000000000000831461119e576111998361203b565b6111c0565b7f00000000000000000000000000000000000000000000000000000000000000005b826040516020016111d2929190613188565b60405160208183030381529060405280519060200120905060006001828888886040516000815260200160405260405161120f9493929190613309565b6020604051602081039080840390855afa158015611231573d6000803e3d6000fd5b505050602060405103519050600073ffffffffffffffffffffffffffffffffffffffff168173ffffffffffffffffffffffffffffffffffffffff16141580156112a557508a73ffffffffffffffffffffffffffffffffffffffff168173ffffffffffffffffffffffffffffffffffffffff16145b6112e4576040517f08c379a00000000000000000000000000000000000000000000000000000000081526004016112db90613466565b60405180910390fd5b6112ef8b8b8b6114e4565b505050505050505050505050565b6000600360008473ffffffffffffffffffffffffffffffffffffffff1673ffffffffffffffffffffffffffffffffffffffff16815260200190815260200160002060008373ffffffffffffffffffffffffffffffffffffffff1673ffffffffffffffffffffffffffffffffffffffff16815260200190815260200160002054905092915050565b81611397611391826120b7565b336115d7565b6113d6576040517f08c379a00000000000000000000000000000000000000000000000000000000081526004016113cd90613406565b60405180910390fd5b6113e083836123d8565b505050565b60005b82518110156114df5761144361143d848381518110611430577f4e487b7100000000000000000000000000000000000000000000000000000000600052603260045260246000fd5b60200260200101516120b7565b336115d7565b611482576040517f08c379a000000000000000000000000000000000000000000000000000000000815260040161147990613406565b60405180910390fd5b6114cc8382815181106114be577f4e487b7100000000000000000000000000000000000000000000000000000000600052603260045260246000fd5b6020026020010151836123d8565b80806114d79061399b565b9150506113e8565b505050565b600081600360008673ffffffffffffffffffffffffffffffffffffffff1673ffffffffffffffffffffffffffffffffffffffff16815260200190815260200160002060008573ffffffffffffffffffffffffffffffffffffffff1673ffffffffffffffffffffffffffffffffffffffff168152602001908152602001600020819055508273ffffffffffffffffffffffffffffffffffffffff168473ffffffffffffffffffffffffffffffffffffffff167f8c5be1e5ebec7d5bd14f71427d1e84f3dd0314c0f7b2291e5b200ac8c7c3b925846040516115c49190613561565b60405180910390a3600190509392505050565b6000806000847bffffffffffffffffffffffffffffffffffffffffffffffffffffffff19167bffffffffffffffffffffffffffffffffffffffffffffffffffffffff1916815260200190815260200160002060000160008373ffffffffffffffffffffffffffffffffffffffff1673ffffffffffffffffffffffffffffffffffffffff16815260200190815260200160002060009054906101000a900460ff16905092915050565b600060096040518060600160405290816000820160009054906101000a90046fffffffffffffffffffffffffffffffff166fffffffffffffffffffffffffffffffff166fffffffffffffffffffffffffffffffff1681526020016000820160109054906101000a900463ffffffff1663ffffffff1663ffffffff1681526020016000820160149054906101000a90046bffffffffffffffffffffffff166bffffffffffffffffffffffff166bffffffffffffffffffffffff16815250509050600060086040518060400160405290816000820160009054906101000a900463ffffffff1663ffffffff1663ffffffff1681526020016000820160049054906101000a900463ffffffff1663ffffffff1663ffffffff1681525050905060006001549050816000015163ffffffff166117b642612385565b63ffffffff1610156117ca575050506119aa565b60006117e26117d842612385565b846020015161250e565b905060008460200151826117f691906137eb565b63ffffffff16905060008114156118115750505050506119aa565b600083146118ae5761187e8386604001516bffffffffffffffffffffffff1683670de0b6b3a7640000611844919061375d565b61184e919061375d565b611858919061372c565b86600001516fffffffffffffffffffffffffffffffff1661187991906136d6565b612533565b85600001906fffffffffffffffffffffffffffffffff1690816fffffffffffffffffffffffffffffffff16815250505b81856020019063ffffffff16908163ffffffff168152505084600960008201518160000160006101000a8154816fffffffffffffffffffffffffffffffff02191690836fffffffffffffffffffffffffffffffff16021790555060208201518160000160106101000a81548163ffffffff021916908363ffffffff16021790555060408201518160000160146101000a8154816bffffffffffffffffffffffff02191690836bffffffffffffffffffffffff1602179055509050507fe972555b20cae8150e291bb40efce3ef4e3ed6b6b2c39c029346600e95469d48856000015160405161199c91906134e6565b60405180910390a150505050505b565b600080600a60008473ffffffffffffffffffffffffffffffffffffffff1673ffffffffffffffffffffffffffffffffffffffff1681526020019081526020016000206040518060400160405290816000820160009054906101000a90046fffffffffffffffffffffffffffffffff166fffffffffffffffffffffffffffffffff166fffffffffffffffffffffffffffffffff1681526020016000820160109054906101000a90046fffffffffffffffffffffffffffffffff166fffffffffffffffffffffffffffffffff166fffffffffffffffffffffffffffffffff16815250509050600060096040518060600160405290816000820160009054906101000a90046fffffffffffffffffffffffffffffffff166fffffffffffffffffffffffffffffffff166fffffffffffffffffffffffffffffffff1681526020016000820160109054906101000a900463ffffffff1663ffffffff1663ffffffff1681526020016000820160149054906101000a90046bffffffffffffffffffffffff166bffffffffffffffffffffffff166bffffffffffffffffffffffff16815250509050611bfa670de0b6b3a764000083602001518360000151611b6e91906137b7565b6fffffffffffffffffffffffffffffffff16600260008873ffffffffffffffffffffffffffffffffffffffff1673ffffffffffffffffffffffffffffffffffffffff16815260200190815260200160002054611bca919061375d565b611bd4919061372c565b83600001516fffffffffffffffffffffffffffffffff16611bf591906136d6565b612533565b82600001906fffffffffffffffffffffffffffffffff1690816fffffffffffffffffffffffffffffffff1681525050806000015182602001906fffffffffffffffffffffffffffffffff1690816fffffffffffffffffffffffffffffffff168152505081600a60008673ffffffffffffffffffffffffffffffffffffffff1673ffffffffffffffffffffffffffffffffffffffff16815260200190815260200160002060008201518160000160006101000a8154816fffffffffffffffffffffffffffffffff02191690836fffffffffffffffffffffffffffffffff16021790555060208201518160000160106101000a8154816fffffffffffffffffffffffffffffffff02191690836fffffffffffffffffffffffffffffffff1602179055509050507f5b9aaf4cc5141c090a75f8b8a627863eba92df81f0c83c096350da9b79aedd048483600001518460200151604051611d59939291906131bf565b60405180910390a1816000015192505050919050565b6000808473ffffffffffffffffffffffffffffffffffffffff1663a9059cbb60e01b8585604051602401611da49291906131f6565b604051602081830303815290604052907bffffffffffffffffffffffffffffffffffffffffffffffffffffffff19166020820180517bffffffffffffffffffffffffffffffffffffffffffffffffffffffff8381831617835250505050604051611e0e919061315a565b6000604051808303816000865af19150503d8060008114611e4b576040519150601f19603f3d011682016040523d82523d6000602084013e611e50565b606091505b5091509150818015611e7e5750600081511480611e7d575080806020019051810190611e7c9190612b8c565b5b5b611ec757611e8b81612592565b6040517f08c379a0000000000000000000000000000000000000000000000000000000008152600401611ebe9190613384565b60405180910390fd5b5050505050565b60003373ffffffffffffffffffffffffffffffffffffffff168373ffffffffffffffffffffffffffffffffffffffff1614611fff576000600360008573ffffffffffffffffffffffffffffffffffffffff1673ffffffffffffffffffffffffffffffffffffffff16815260200190815260200160002060003373ffffffffffffffffffffffffffffffffffffffff1673ffffffffffffffffffffffffffffffffffffffff1681526020019081526020016000205490507fffffffffffffffffffffffffffffffffffffffffffffffffffffffffffffffff8114611ffd5782811015611fee576040517f08c379a0000000000000000000000000000000000000000000000000000000008152600401611fe5906133e6565b60405180910390fd5b611ffb84338584036114e4565b505b505b6001905092915050565b600061201361167f565b61201c846119ac565b50612026836119ac565b506120328484846125fd565b90509392505050565b60007f8b73c3c69bb8fe3d512ecc4cf759cc79239f7b179b0ffacaa9a75d522b39400f600460405161206d9190613171565b604051809103902061207d6109f0565b80519060200120843060405160200161209a9594939291906132b6565b604051602081830303815290604052805190602001209050919050565b6000806000837bffffffffffffffffffffffffffffffffffffffffffffffffffffffff19167bffffffffffffffffffffffffffffffffffffffffffffffffffffffff1916815260200190815260200160002060010160009054906101000a900460e01b9050919050565b61212b82826115d7565b15612254576000806000847bffffffffffffffffffffffffffffffffffffffffffffffffffffffff19167bffffffffffffffffffffffffffffffffffffffffffffffffffffffff1916815260200190815260200160002060000160008373ffffffffffffffffffffffffffffffffffffffff1673ffffffffffffffffffffffffffffffffffffffff16815260200190815260200160002060006101000a81548160ff0219169083151502179055503373ffffffffffffffffffffffffffffffffffffffff168173ffffffffffffffffffffffffffffffffffffffff16837bffffffffffffffffffffffffffffffffffffffffffffffffffffffff19167f4ddc7b757e7bdd7254a9cd39452d307a52761bc824625c6a33104a075d8099e660405160405180910390a45b5050565b807bffffffffffffffffffffffffffffffffffffffffffffffffffffffff1916612281836120b7565b7bffffffffffffffffffffffffffffffffffffffffffffffffffffffff1916146123815780600080847bffffffffffffffffffffffffffffffffffffffffffffffffffffffff19167bffffffffffffffffffffffffffffffffffffffffffffffffffffffff1916815260200190815260200160002060010160006101000a81548163ffffffff021916908360e01c0217905550807bffffffffffffffffffffffffffffffffffffffffffffffffffffffff1916827bffffffffffffffffffffffffffffffffffffffffffffffffffffffff19167fd348e2220a50b4500ec353f6e802d2f14dd1b5d6786148fd1bbcc570bf92d47360405160405180910390a35b5050565b600063ffffffff80168211156123d0576040517f08c379a00000000000000000000000000000000000000000000000000000000081526004016123c7906133a6565b60405180910390fd5b819050919050565b6123e282826115d7565b61250a576001600080847bffffffffffffffffffffffffffffffffffffffffffffffffffffffff19167bffffffffffffffffffffffffffffffffffffffffffffffffffffffff1916815260200190815260200160002060000160008373ffffffffffffffffffffffffffffffffffffffff1673ffffffffffffffffffffffffffffffffffffffff16815260200190815260200160002060006101000a81548160ff0219169083151502179055503373ffffffffffffffffffffffffffffffffffffffff168173ffffffffffffffffffffffffffffffffffffffff16837bffffffffffffffffffffffffffffffffffffffffffffffffffffffff19167fe6231789d19137da31d0550f4ba9ee379020a8cfb64cb79bf1790c996d2e616560405160405180910390a45b5050565b60008163ffffffff168363ffffffff1610612529578161252b565b825b905092915050565b60006fffffffffffffffffffffffffffffffff801682111561258a576040517f08c379a0000000000000000000000000000000000000000000000000000000008152600401612581906133a6565b60405180910390fd5b819050919050565b60606044825110156125db576040518060400160405280601d81526020017f5472616e73616374696f6e2072657665727465642073696c656e746c7900000081525090506125f8565b600482019150818060200190518101906125f59190612c56565b90505b919050565b600081600260008673ffffffffffffffffffffffffffffffffffffffff1673ffffffffffffffffffffffffffffffffffffffff168152602001908152602001600020541015612681576040517f08c379a000000000000000000000000000000000000000000000000000000000815260040161267890613426565b60405180910390fd5b81600260008673ffffffffffffffffffffffffffffffffffffffff1673ffffffffffffffffffffffffffffffffffffffff1681526020019081526020016000205403600260008673ffffffffffffffffffffffffffffffffffffffff1673ffffffffffffffffffffffffffffffffffffffff1681526020019081526020016000208190555081600260008573ffffffffffffffffffffffffffffffffffffffff1673ffffffffffffffffffffffffffffffffffffffff1681526020019081526020016000205461275191906136d6565b600260008573ffffffffffffffffffffffffffffffffffffffff1673ffffffffffffffffffffffffffffffffffffffff168152602001908152602001600020819055508273ffffffffffffffffffffffffffffffffffffffff168473ffffffffffffffffffffffffffffffffffffffff167fddf252ad1be2c89b69c2b068fc378daa952ba7f163c4a11628f55a4df523b3ef846040516127f19190613561565b60405180910390a3600190509392505050565b600061281761281284613628565b6135f7565b9050808382526020820190508285602086028201111561283657600080fd5b60005b85811015612866578161284c8882612917565b845260208401935060208301925050600181019050612839565b5050509392505050565b600061288361287e84613654565b6135f7565b90508281526020810184848401111561289b57600080fd5b6128a6848285613936565b509392505050565b6000813590506128bd81613abb565b92915050565b600082601f8301126128d457600080fd5b81356128e4848260208601612804565b91505092915050565b6000815190506128fc81613ad2565b92915050565b60008135905061291181613ae9565b92915050565b60008135905061292681613b00565b92915050565b600082601f83011261293d57600080fd5b815161294d848260208601612870565b91505092915050565b60008135905061296581613b17565b92915050565b60008135905061297a81613b2e565b92915050565b60008135905061298f81613b45565b92915050565b6000813590506129a481613b5c565b92915050565b6000602082840312156129bc57600080fd5b60006129ca848285016128ae565b91505092915050565b600080604083850312156129e657600080fd5b60006129f4858286016128ae565b9250506020612a05858286016128ae565b9150509250929050565b600080600060608486031215612a2457600080fd5b6000612a32868287016128ae565b9350506020612a43868287016128ae565b9250506040612a5486828701612956565b9150509250925092565b600080600080600080600060e0888a031215612a7957600080fd5b6000612a878a828b016128ae565b9750506020612a988a828b016128ae565b9650506040612aa98a828b01612956565b9550506060612aba8a828b01612956565b9450506080612acb8a828b01612980565b93505060a0612adc8a828b01612902565b92505060c0612aed8a828b01612902565b91505092959891949750929550565b60008060408385031215612b0f57600080fd5b6000612b1d858286016128ae565b9250506020612b2e85828601612956565b9150509250929050565b60008060408385031215612b4b57600080fd5b600083013567ffffffffffffffff811115612b6557600080fd5b612b71858286016128c3565b9250506020612b82858286016128ae565b9150509250929050565b600060208284031215612b9e57600080fd5b6000612bac848285016128ed565b91505092915050565b600060208284031215612bc757600080fd5b6000612bd584828501612917565b91505092915050565b60008060408385031215612bf157600080fd5b6000612bff85828601612917565b9250506020612c10858286016128ae565b9150509250929050565b60008060408385031215612c2d57600080fd5b6000612c3b85828601612917565b9250506020612c4c85828601612917565b9150509250929050565b600060208284031215612c6857600080fd5b600082015167ffffffffffffffff811115612c8257600080fd5b612c8e8482850161292c565b91505092915050565b600080600060608486031215612cac57600080fd5b6000612cba8682870161296b565b9350506020612ccb8682870161296b565b9250506040612cdc86828701612995565b9150509250925092565b612cef8161381f565b82525050565b612cfe81613831565b82525050565b612d0d8161383d565b82525050565b612d24612d1f8261383d565b6139e4565b82525050565b612d3381613847565b82525050565b6000612d4482613699565b612d4e81856136af565b9350612d5e818560208601613936565b80840191505092915050565b60008154612d7781613969565b612d8181866136af565b94506001821660008114612d9c5760018114612dad57612de0565b60ff19831686528186019350612de0565b612db685613684565b60005b83811015612dd857815481890152600182019150602081019050612db9565b838801955050505b50505092915050565b612df2816138ee565b82525050565b6000612e03826136a4565b612e0d81856136ba565b9350612e1d818560208601613936565b612e2681613aaa565b840191505092915050565b6000612e3e600d836136ba565b91507f43617374206f766572666c6f77000000000000000000000000000000000000006000830152602082019050919050565b6000612e7e6002836136cb565b91507f19010000000000000000000000000000000000000000000000000000000000006000830152600282019050919050565b6000612ebe601d836136ba565b91507f45524332305065726d69743a206578706972656420646561646c696e650000006000830152602082019050919050565b6000612efe601c836136ba565b91507f45524332303a20496e73756666696369656e7420617070726f76616c000000006000830152602082019050919050565b6000612f3e600a836136ba565b91507f4f6e6c792061646d696e000000000000000000000000000000000000000000006000830152602082019050919050565b6000612f7e601b836136ba565b91507f45524332303a20496e73756666696369656e742062616c616e636500000000006000830152602082019050919050565b6000612fbe600f836136ba565b91507f496e636f727265637420696e70757400000000000000000000000000000000006000830152602082019050919050565b6000612ffe601e836136ba565b91507f45524332305065726d69743a20696e76616c6964207369676e617475726500006000830152602082019050919050565b600061303e6016836136ba565b91507f52656e6f756e6365206f6e6c7920666f722073656c66000000000000000000006000830152602082019050919050565b600061307e600d836136ba565b91507f4163636573732064656e696564000000000000000000000000000000000000006000830152602082019050919050565b60006130be600f836136ba565b91507f4f6e676f696e67207265776172647300000000000000000000000000000000006000830152602082019050919050565b6130fa81613873565b82525050565b61310981613912565b82525050565b613118816138af565b82525050565b613127816138b9565b82525050565b613136816138c9565b82525050565b61314581613924565b82525050565b613154816138d6565b82525050565b60006131668284612d39565b915081905092915050565b600061317d8284612d6a565b915081905092915050565b600061319382612e71565b915061319f8285612d13565b6020820191506131af8284612d13565b6020820191508190509392505050565b60006060820190506131d46000830186612ce6565b6131e16020830185613100565b6131ee6040830184613100565b949350505050565b600060408201905061320b6000830185612ce6565b613218602083018461310f565b9392505050565b60006020820190506132346000830184612cf5565b92915050565b600060208201905061324f6000830184612d04565b92915050565b600060c08201905061326a6000830189612d04565b6132776020830188612ce6565b6132846040830187612ce6565b613291606083018661310f565b61329e608083018561310f565b6132ab60a083018461310f565b979650505050505050565b600060a0820190506132cb6000830188612d04565b6132d86020830187612d04565b6132e56040830186612d04565b6132f2606083018561310f565b6132ff6080830184612ce6565b9695505050505050565b600060808201905061331e6000830187612d04565b61332b602083018661312d565b6133386040830185612d04565b6133456060830184612d04565b95945050505050565b60006020820190506133636000830184612d2a565b92915050565b600060208201905061337e6000830184612de9565b92915050565b6000602082019050818103600083015261339e8184612df8565b905092915050565b600060208201905081810360008301526133bf81612e31565b9050919050565b600060208201905081810360008301526133df81612eb1565b9050919050565b600060208201905081810360008301526133ff81612ef1565b9050919050565b6000602082019050818103600083015261341f81612f31565b9050919050565b6000602082019050818103600083015261343f81612f71565b9050919050565b6000602082019050818103600083015261345f81612fb1565b9050919050565b6000602082019050818103600083015261347f81612ff1565b9050919050565b6000602082019050818103600083015261349f81613031565b9050919050565b600060208201905081810360008301526134bf81613071565b9050919050565b600060208201905081810360008301526134df816130b1565b9050919050565b60006020820190506134fb6000830184613100565b92915050565b600060408201905061351660008301856130f1565b61352360208301846130f1565b9392505050565b600060608201905061353f60008301866130f1565b61354c602083018561311e565b613559604083018461314b565b949350505050565b6000602082019050613576600083018461310f565b92915050565b6000604082019050613591600083018561311e565b61359e602083018461311e565b9392505050565b60006060820190506135ba600083018661311e565b6135c7602083018561311e565b6135d4604083018461313c565b949350505050565b60006020820190506135f1600083018461312d565b92915050565b6000604051905081810181811067ffffffffffffffff8211171561361e5761361d613a7b565b5b8060405250919050565b600067ffffffffffffffff82111561364357613642613a7b565b5b602082029050602081019050919050565b600067ffffffffffffffff82111561366f5761366e613a7b565b5b601f19601f8301169050602081019050919050565b60008190508160005260206000209050919050565b600081519050919050565b600081519050919050565b600081905092915050565b600082825260208201905092915050565b600081905092915050565b60006136e1826138af565b91506136ec836138af565b9250827fffffffffffffffffffffffffffffffffffffffffffffffffffffffffffffffff03821115613721576137206139ee565b5b828201905092915050565b6000613737826138af565b9150613742836138af565b92508261375257613751613a1d565b5b828204905092915050565b6000613768826138af565b9150613773836138af565b9250817fffffffffffffffffffffffffffffffffffffffffffffffffffffffffffffffff04831182151516156137ac576137ab6139ee565b5b828202905092915050565b60006137c282613873565b91506137cd83613873565b9250828210156137e0576137df6139ee565b5b828203905092915050565b60006137f6826138b9565b9150613801836138b9565b925082821015613814576138136139ee565b5b828203905092915050565b600061382a8261388f565b9050919050565b60008115159050919050565b6000819050919050565b60007fffffffff0000000000000000000000000000000000000000000000000000000082169050919050565b60006fffffffffffffffffffffffffffffffff82169050919050565b600073ffffffffffffffffffffffffffffffffffffffff82169050919050565b6000819050919050565b600063ffffffff82169050919050565b600060ff82169050919050565b60006bffffffffffffffffffffffff82169050919050565b60006138f982613900565b9050919050565b600061390b8261388f565b9050919050565b600061391d82613873565b9050919050565b600061392f826138d6565b9050919050565b60005b83811015613954578082015181840152602081019050613939565b83811115613963576000848401525b50505050565b6000600282049050600182168061398157607f821691505b6020821081141561399557613994613a4c565b5b50919050565b60006139a6826138af565b91507fffffffffffffffffffffffffffffffffffffffffffffffffffffffffffffffff8214156139d9576139d86139ee565b5b600182019050919050565b6000819050919050565b7f4e487b7100000000000000000000000000000000000000000000000000000000600052601160045260246000fd5b7f4e487b7100000000000000000000000000000000000000000000000000000000600052601260045260246000fd5b7f4e487b7100000000000000000000000000000000000000000000000000000000600052602260045260246000fd5b7f4e487b7100000000000000000000000000000000000000000000000000000000600052604160045260246000fd5b6000601f19601f8301169050919050565b613ac48161381f565b8114613acf57600080fd5b50565b613adb81613831565b8114613ae657600080fd5b50565b613af28161383d565b8114613afd57600080fd5b50565b613b0981613847565b8114613b1457600080fd5b50565b613b20816138af565b8114613b2b57600080fd5b50565b613b37816138b9565b8114613b4257600080fd5b50565b613b4e816138c9565b8114613b5957600080fd5b50565b613b65816138d6565b8114613b7057600080fd5b5056fea264697066735822122061ef75560319213af9e76bee01cf88a7e5e008beadf2c5893c9922d1af17a9d564736f6c63430008000033",
  "immutableReferences": {
    "1003": [
      {
        "length": 32,
        "start": 2295
      },
      {
        "length": 32,
        "start": 4291
      }
    ],
    "1005": [
      {
        "length": 32,
        "start": 2409
      },
      {
        "length": 32,
        "start": 4512
      }
    ],
    "1007": [
      {
        "length": 32,
        "start": 2356
      },
      {
        "length": 32,
        "start": 4145
      },
      {
        "length": 32,
        "start": 4459
      }
    ],
    "1268": [
      {
        "length": 32,
        "start": 2080
      },
      {
        "length": 32,
        "start": 4181
      }
    ]
  },
  "source": "// SPDX-License-Identifier: MIT\npragma solidity ^0.8.0;\n\nimport \"./IERC20.sol\";\nimport \"./ERC20Permit.sol\";\nimport \"../access/AccessControl.sol\";\nimport \"../utils/RevertMsgExtractor.sol\";\nimport \"../token/MinimalTransferHelper.sol\";\nimport \"../cast/CastU256U128.sol\";\nimport \"../cast/CastU256U32.sol\";\n\n/// @dev A token inheriting from ERC20Rewards will reward token holders with a rewards token.\n/// The rewarded amount will be a fixed wei per second, distributed proportionally to token holders\n/// by the size of their holdings.\ncontract ERC20Rewards is AccessControl, ERC20Permit {\n    using MinimalTransferHelper for IERC20;\n    using CastU256U32 for uint256;\n    using CastU256U128 for uint256;\n\n    event RewardsSet(uint32 start, uint32 end, uint256 rate);\n    event RewardsPerTokenUpdated(uint256 accumulated);\n    event UserRewardsUpdated(\n        address user,\n        uint256 userRewards,\n        uint256 paidRewardPerToken\n    );\n    event Claimed(address receiver, uint256 claimed);\n\n    struct RewardsPeriod {\n        uint32 start; // Start time for the current rewardsToken schedule\n        uint32 end; // End time for the current rewardsToken schedule\n    }\n\n    struct RewardsPerToken {\n        uint128 accumulated; // Accumulated rewards per token for the period, scaled up by 1e18\n        uint32 lastUpdated; // Last time the rewards per token accumulator was updated\n        uint96 rate; // Wei rewarded per second among all token holders\n    }\n\n    struct UserRewards {\n        uint128 accumulated; // Accumulated rewards for the user until the checkpoint\n        uint128 checkpoint; // RewardsPerToken the last time the user rewards were updated\n    }\n\n    IERC20 public immutable rewardsToken; // Token used as rewards\n    RewardsPeriod public rewardsPeriod; // Period in which rewards are accumulated by users\n\n    RewardsPerToken public rewardsPerToken; // Accumulator to track rewards per token\n    mapping(address => UserRewards) public rewards; // Rewards accumulated by users\n\n    constructor(\n        string memory name,\n        string memory symbol,\n        uint8 decimals,\n        IERC20 rewardsToken_\n    ) ERC20Permit(name, symbol, decimals) {\n        rewardsToken = rewardsToken_;\n    }\n\n    /// @dev Return the earliest of two timestamps\n    function earliest(uint32 x, uint32 y) internal pure returns (uint32 z) {\n        z = (x < y) ? x : y;\n    }\n\n    /// @dev Set a rewards schedule\n    function setRewards(\n        uint32 start,\n        uint32 end,\n        uint96 rate\n    ) public auth {\n        require(start <= end, \"Incorrect input\");\n        // A new rewards program can be set if one is not running\n        require(\n            block.timestamp.u32() < rewardsPeriod.start ||\n                block.timestamp.u32() > rewardsPeriod.end,\n            \"Ongoing rewards\"\n        );\n\n        rewardsPeriod.start = start;\n        rewardsPeriod.end = end;\n\n        // If setting up a new rewards program, the rewardsPerToken.accumulated is used and built upon\n        // New rewards start accumulating from the new rewards program start\n        // Any unaccounted rewards from last program can still be added to the user rewards\n        // Any unclaimed rewards can still be claimed\n        rewardsPerToken.lastUpdated = start;\n        rewardsPerToken.rate = rate;\n\n        emit RewardsSet(start, end, rate);\n    }\n\n    /// @dev Update the rewards per token accumulator.\n    /// @notice Needs to be called on each liquidity event\n    function _updateRewardsPerToken() internal {\n        RewardsPerToken memory rewardsPerToken_ = rewardsPerToken;\n        RewardsPeriod memory rewardsPeriod_ = rewardsPeriod;\n        uint256 totalSupply_ = _totalSupply;\n\n        // We skip the update if the program hasn't started\n        if (block.timestamp.u32() < rewardsPeriod_.start) return;\n\n        // Find out the unaccounted time\n        uint32 end = earliest(block.timestamp.u32(), rewardsPeriod_.end);\n        uint256 unaccountedTime = end - rewardsPerToken_.lastUpdated; // Cast to uint256 to avoid overflows later on\n        if (unaccountedTime == 0) return; // We skip the storage changes if already updated in the same block\n\n        // Calculate and update the new value of the accumulator. unaccountedTime casts it into uint256, which is desired.\n        // If the first mint happens mid-program, we don't update the accumulator, no one gets the rewards for that period.\n        if (totalSupply_ != 0)\n            rewardsPerToken_.accumulated = (rewardsPerToken_.accumulated +\n                (1e18 * unaccountedTime * rewardsPerToken_.rate) /\n                totalSupply_).u128(); // The rewards per token are scaled up for precision\n        rewardsPerToken_.lastUpdated = end;\n        rewardsPerToken = rewardsPerToken_;\n\n        emit RewardsPerTokenUpdated(rewardsPerToken_.accumulated);\n    }\n\n    /// @dev Accumulate rewards for an user.\n    /// @notice Needs to be called on each liquidity event, or when user balances change.\n    function _updateUserRewards(address user) internal returns (uint128) {\n        UserRewards memory userRewards_ = rewards[user];\n        RewardsPerToken memory rewardsPerToken_ = rewardsPerToken;\n\n        // Calculate and update the new value user reserves. _balanceOf[user] casts it into uint256, which is desired.\n        userRewards_.accumulated = (userRewards_.accumulated +\n            (_balanceOf[user] *\n                (rewardsPerToken_.accumulated - userRewards_.checkpoint)) /\n            1e18).u128(); // We must scale down the rewards by the precision factor\n        userRewards_.checkpoint = rewardsPerToken_.accumulated;\n        rewards[user] = userRewards_;\n        emit UserRewardsUpdated(\n            user,\n            userRewards_.accumulated,\n            userRewards_.checkpoint\n        );\n\n        return userRewards_.accumulated;\n    }\n\n    /// @dev Mint tokens, after accumulating rewards for an user and update the rewards per token accumulator.\n    function _mint(address dst, uint256 wad)\n        internal\n        virtual\n        override\n        returns (bool)\n    {\n        _updateRewardsPerToken();\n        _updateUserRewards(dst);\n        return super._mint(dst, wad);\n    }\n\n    /// @dev Burn tokens, after accumulating rewards for an user and update the rewards per token accumulator.\n    function _burn(address src, uint256 wad)\n        internal\n        virtual\n        override\n        returns (bool)\n    {\n        _updateRewardsPerToken();\n        _updateUserRewards(src);\n        return super._burn(src, wad);\n    }\n\n    /// @dev Transfer tokens, after updating rewards for source and destination.\n    function _transfer(\n        address src,\n        address dst,\n        uint256 wad\n    ) internal virtual override returns (bool) {\n        _updateRewardsPerToken();\n        _updateUserRewards(src);\n        _updateUserRewards(dst);\n        return super._transfer(src, dst, wad);\n    }\n\n    /// @dev Claim all rewards from caller into a given address\n    function claim(address to) external returns (uint256 claiming) {\n        _updateRewardsPerToken();\n        claiming = _updateUserRewards(msg.sender);\n        rewards[msg.sender].accumulated = 0; // A Claimed event implies the rewards were set to zero\n        rewardsToken.safeTransfer(to, claiming);\n        emit Claimed(to, claiming);\n    }\n}\n",
  "sourcePath": "/Volumes/APPLE HDD/reactprojects/token-reward-safe/contracts/yields-utils-v2/token/ERC20Rewards.sol",
  "compiler": {
    "name": "solc",
    "version": "0.8.0+commit.c7dfd78e.Emscripten.clang"
  },
  "schemaVersion": "3.4.3",
  "updatedAt": "2021-10-30T22:01:57.780Z",
  "devdoc": {
    "details": "A token inheriting from ERC20Rewards will reward token holders with a rewards token. The rewarded amount will be a fixed wei per second, distributed proportionally to token holders by the size of their holdings.",
    "kind": "dev",
    "methods": {
      "DOMAIN_SEPARATOR()": {
        "details": "Return the DOMAIN_SEPARATOR."
      },
      "allowance(address,address)": {
        "details": "See {IERC20-allowance}."
      },
      "approve(address,uint256)": {
        "details": "See {IERC20-approve}."
      },
      "balanceOf(address)": {
        "details": "See {IERC20-balanceOf}."
      },
      "claim(address)": {
        "details": "Claim all rewards from caller into a given address"
      },
      "getRoleAdmin(bytes4)": {
        "details": "Returns the admin role that controls `role`. See {grantRole} and {revokeRole}. To change a role's admin, use {_setRoleAdmin}."
      },
      "grantRole(bytes4,address)": {
        "details": "Grants `role` to `account`. If `account` had not been already granted `role`, emits a {RoleGranted} event. Requirements: - the caller must have ``role``'s admin role."
      },
      "grantRoles(bytes4[],address)": {
        "details": "Grants all of `role` in `roles` to `account`. If `account` had not been already granted `role`, emits a {RoleGranted} event. Requirements: - For each `role` in `roles`, the caller must have ``role``'s admin role."
      },
      "hasRole(bytes4,address)": {
        "details": "Returns `true` if `account` has been granted `role`."
      },
      "lockRole(bytes4)": {
        "details": "Sets LOCK as ``role``'s admin role. LOCK has no members, so this disables admin management of ``role``. Emits a {RoleAdminChanged} event. Requirements: - the caller must have ``role``'s admin role."
      },
      "permit(address,address,uint256,uint256,uint8,bytes32,bytes32)": {
        "details": "See {IERC2612-permit}. In cases where the free option is not a concern, deadline can simply be set to uint(-1), so it should be seen as an optional parameter"
      },
      "renounceRole(bytes4,address)": {
        "details": "Revokes `role` from the calling account. Roles are often managed via {grantRole} and {revokeRole}: this function's purpose is to provide a mechanism for accounts to lose their privileges if they are compromised (such as when a trusted device is misplaced). If the calling account had been granted `role`, emits a {RoleRevoked} event. Requirements: - the caller must be `account`."
      },
      "revokeRole(bytes4,address)": {
        "details": "Revokes `role` from `account`. If `account` had been granted `role`, emits a {RoleRevoked} event. Requirements: - the caller must have ``role``'s admin role."
      },
      "revokeRoles(bytes4[],address)": {
        "details": "Revokes all of `role` in `roles` from `account`. If `account` had been granted `role`, emits a {RoleRevoked} event. Requirements: - For each `role` in `roles`, the caller must have ``role``'s admin role."
      },
      "setRewards(uint32,uint32,uint96)": {
        "details": "Set a rewards schedule"
      },
      "setRoleAdmin(bytes4,bytes4)": {
        "details": "Sets `adminRole` as ``role``'s admin role. If ``role``'s admin role is not `adminRole` emits a {RoleAdminChanged} event. Requirements: - the caller must have ``role``'s admin role."
      },
      "totalSupply()": {
        "details": "See {IERC20-totalSupply}."
      },
      "transfer(address,uint256)": {
        "details": "See {IERC20-transfer}. Requirements: - the caller must have a balance of at least `wad`."
      },
      "version()": {
        "details": "Setting the version as a function so that it can be overriden"
      }
    },
    "version": 1
  },
  "userdoc": {
    "kind": "user",
    "methods": {
      "transferFrom(address,address,uint256)": {
        "notice": "if_succeeds {:msg \"TransferFrom - decrease allowance\"} msg.sender != src ==> old(_allowance[src][msg.sender]) >= wad;"
      }
    },
    "version": 1
  }
}