{
  "contractName": "ERC20RewardsMock",
  "abi": [
    {
      "inputs": [
        {
          "internalType": "string",
          "name": "name",
          "type": "string"
        },
        {
          "internalType": "string",
          "name": "symbol",
          "type": "string"
        },
        {
          "internalType": "uint8",
          "name": "decimals",
          "type": "uint8"
        },
        {
          "internalType": "contract IERC20",
          "name": "rewardsToken",
          "type": "address"
        }
      ],
      "stateMutability": "nonpayable",
      "type": "constructor"
    },
    {
      "anonymous": false,
      "inputs": [
        {
          "indexed": true,
          "internalType": "address",
          "name": "owner",
          "type": "address"
        },
        {
          "indexed": true,
          "internalType": "address",
          "name": "spender",
          "type": "address"
        },
        {
          "indexed": false,
          "internalType": "uint256",
          "name": "value",
          "type": "uint256"
        }
      ],
      "name": "Approval",
      "type": "event"
    },
    {
      "anonymous": false,
      "inputs": [
        {
          "indexed": false,
          "internalType": "address",
          "name": "receiver",
          "type": "address"
        },
        {
          "indexed": false,
          "internalType": "uint256",
          "name": "claimed",
          "type": "uint256"
        }
      ],
      "name": "Claimed",
      "type": "event"
    },
    {
      "anonymous": false,
      "inputs": [
        {
          "indexed": false,
          "internalType": "uint256",
          "name": "accumulated",
          "type": "uint256"
        }
      ],
      "name": "RewardsPerTokenUpdated",
      "type": "event"
    },
    {
      "anonymous": false,
      "inputs": [
        {
          "indexed": false,
          "internalType": "uint32",
          "name": "start",
          "type": "uint32"
        },
        {
          "indexed": false,
          "internalType": "uint32",
          "name": "end",
          "type": "uint32"
        },
        {
          "indexed": false,
          "internalType": "uint256",
          "name": "rate",
          "type": "uint256"
        }
      ],
      "name": "RewardsSet",
      "type": "event"
    },
    {
      "anonymous": false,
      "inputs": [
        {
          "indexed": true,
          "internalType": "bytes4",
          "name": "role",
          "type": "bytes4"
        },
        {
          "indexed": true,
          "internalType": "bytes4",
          "name": "newAdminRole",
          "type": "bytes4"
        }
      ],
      "name": "RoleAdminChanged",
      "type": "event"
    },
    {
      "anonymous": false,
      "inputs": [
        {
          "indexed": true,
          "internalType": "bytes4",
          "name": "role",
          "type": "bytes4"
        },
        {
          "indexed": true,
          "internalType": "address",
          "name": "account",
          "type": "address"
        },
        {
          "indexed": true,
          "internalType": "address",
          "name": "sender",
          "type": "address"
        }
      ],
      "name": "RoleGranted",
      "type": "event"
    },
    {
      "anonymous": false,
      "inputs": [
        {
          "indexed": true,
          "internalType": "bytes4",
          "name": "role",
          "type": "bytes4"
        },
        {
          "indexed": true,
          "internalType": "address",
          "name": "account",
          "type": "address"
        },
        {
          "indexed": true,
          "internalType": "address",
          "name": "sender",
          "type": "address"
        }
      ],
      "name": "RoleRevoked",
      "type": "event"
    },
    {
      "anonymous": false,
      "inputs": [
        {
          "indexed": true,
          "internalType": "address",
          "name": "from",
          "type": "address"
        },
        {
          "indexed": true,
          "internalType": "address",
          "name": "to",
          "type": "address"
        },
        {
          "indexed": false,
          "internalType": "uint256",
          "name": "value",
          "type": "uint256"
        }
      ],
      "name": "Transfer",
      "type": "event"
    },
    {
      "anonymous": false,
      "inputs": [
        {
          "indexed": false,
          "internalType": "address",
          "name": "user",
          "type": "address"
        },
        {
          "indexed": false,
          "internalType": "uint256",
          "name": "userRewards",
          "type": "uint256"
        },
        {
          "indexed": false,
          "internalType": "uint256",
          "name": "paidRewardPerToken",
          "type": "uint256"
        }
      ],
      "name": "UserRewardsUpdated",
      "type": "event"
    },
    {
      "inputs": [],
      "name": "DOMAIN_SEPARATOR",
      "outputs": [
        {
          "internalType": "bytes32",
          "name": "",
          "type": "bytes32"
        }
      ],
      "stateMutability": "view",
      "type": "function"
    },
    {
      "inputs": [],
      "name": "LOCK",
      "outputs": [
        {
          "internalType": "bytes4",
          "name": "",
          "type": "bytes4"
        }
      ],
      "stateMutability": "view",
      "type": "function"
    },
    {
      "inputs": [],
      "name": "PERMIT_TYPEHASH",
      "outputs": [
        {
          "internalType": "bytes32",
          "name": "",
          "type": "bytes32"
        }
      ],
      "stateMutability": "view",
      "type": "function"
    },
    {
      "inputs": [],
      "name": "ROOT",
      "outputs": [
        {
          "internalType": "bytes4",
          "name": "",
          "type": "bytes4"
        }
      ],
      "stateMutability": "view",
      "type": "function"
    },
    {
      "inputs": [
        {
          "internalType": "address",
          "name": "owner",
          "type": "address"
        },
        {
          "internalType": "address",
          "name": "spender",
          "type": "address"
        }
      ],
      "name": "allowance",
      "outputs": [
        {
          "internalType": "uint256",
          "name": "",
          "type": "uint256"
        }
      ],
      "stateMutability": "view",
      "type": "function"
    },
    {
      "inputs": [
        {
          "internalType": "address",
          "name": "spender",
          "type": "address"
        },
        {
          "internalType": "uint256",
          "name": "wad",
          "type": "uint256"
        }
      ],
      "name": "approve",
      "outputs": [
        {
          "internalType": "bool",
          "name": "",
          "type": "bool"
        }
      ],
      "stateMutability": "nonpayable",
      "type": "function"
    },
    {
      "inputs": [
        {
          "internalType": "address",
          "name": "guy",
          "type": "address"
        }
      ],
      "name": "balanceOf",
      "outputs": [
        {
          "internalType": "uint256",
          "name": "",
          "type": "uint256"
        }
      ],
      "stateMutability": "view",
      "type": "function"
    },
    {
      "inputs": [
        {
          "internalType": "address",
          "name": "to",
          "type": "address"
        }
      ],
      "name": "claim",
      "outputs": [
        {
          "internalType": "uint256",
          "name": "claiming",
          "type": "uint256"
        }
      ],
      "stateMutability": "nonpayable",
      "type": "function"
    },
    {
      "inputs": [],
      "name": "decimals",
      "outputs": [
        {
          "internalType": "uint8",
          "name": "",
          "type": "uint8"
        }
      ],
      "stateMutability": "view",
      "type": "function"
    },
    {
      "inputs": [],
      "name": "deploymentChainId",
      "outputs": [
        {
          "internalType": "uint256",
          "name": "",
          "type": "uint256"
        }
      ],
      "stateMutability": "view",
      "type": "function"
    },
    {
      "inputs": [
        {
          "internalType": "bytes4",
          "name": "role",
          "type": "bytes4"
        }
      ],
      "name": "getRoleAdmin",
      "outputs": [
        {
          "internalType": "bytes4",
          "name": "",
          "type": "bytes4"
        }
      ],
      "stateMutability": "view",
      "type": "function"
    },
    {
      "inputs": [
        {
          "internalType": "bytes4",
          "name": "role",
          "type": "bytes4"
        },
        {
          "internalType": "address",
          "name": "account",
          "type": "address"
        }
      ],
      "name": "grantRole",
      "outputs": [],
      "stateMutability": "nonpayable",
      "type": "function"
    },
    {
      "inputs": [
        {
          "internalType": "bytes4[]",
          "name": "roles",
          "type": "bytes4[]"
        },
        {
          "internalType": "address",
          "name": "account",
          "type": "address"
        }
      ],
      "name": "grantRoles",
      "outputs": [],
      "stateMutability": "nonpayable",
      "type": "function"
    },
    {
      "inputs": [
        {
          "internalType": "bytes4",
          "name": "role",
          "type": "bytes4"
        },
        {
          "internalType": "address",
          "name": "account",
          "type": "address"
        }
      ],
      "name": "hasRole",
      "outputs": [
        {
          "internalType": "bool",
          "name": "",
          "type": "bool"
        }
      ],
      "stateMutability": "view",
      "type": "function"
    },
    {
      "inputs": [
        {
          "internalType": "bytes4",
          "name": "role",
          "type": "bytes4"
        }
      ],
      "name": "lockRole",
      "outputs": [],
      "stateMutability": "nonpayable",
      "type": "function"
    },
    {
      "inputs": [],
      "name": "name",
      "outputs": [
        {
          "internalType": "string",
          "name": "",
          "type": "string"
        }
      ],
      "stateMutability": "view",
      "type": "function"
    },
    {
      "inputs": [
        {
          "internalType": "address",
          "name": "",
          "type": "address"
        }
      ],
      "name": "nonces",
      "outputs": [
        {
          "internalType": "uint256",
          "name": "",
          "type": "uint256"
        }
      ],
      "stateMutability": "view",
      "type": "function"
    },
    {
      "inputs": [
        {
          "internalType": "address",
          "name": "owner",
          "type": "address"
        },
        {
          "internalType": "address",
          "name": "spender",
          "type": "address"
        },
        {
          "internalType": "uint256",
          "name": "amount",
          "type": "uint256"
        },
        {
          "internalType": "uint256",
          "name": "deadline",
          "type": "uint256"
        },
        {
          "internalType": "uint8",
          "name": "v",
          "type": "uint8"
        },
        {
          "internalType": "bytes32",
          "name": "r",
          "type": "bytes32"
        },
        {
          "internalType": "bytes32",
          "name": "s",
          "type": "bytes32"
        }
      ],
      "name": "permit",
      "outputs": [],
      "stateMutability": "nonpayable",
      "type": "function"
    },
    {
      "inputs": [
        {
          "internalType": "bytes4",
          "name": "role",
          "type": "bytes4"
        },
        {
          "internalType": "address",
          "name": "account",
          "type": "address"
        }
      ],
      "name": "renounceRole",
      "outputs": [],
      "stateMutability": "nonpayable",
      "type": "function"
    },
    {
      "inputs": [
        {
          "internalType": "bytes4",
          "name": "role",
          "type": "bytes4"
        },
        {
          "internalType": "address",
          "name": "account",
          "type": "address"
        }
      ],
      "name": "revokeRole",
      "outputs": [],
      "stateMutability": "nonpayable",
      "type": "function"
    },
    {
      "inputs": [
        {
          "internalType": "bytes4[]",
          "name": "roles",
          "type": "bytes4[]"
        },
        {
          "internalType": "address",
          "name": "account",
          "type": "address"
        }
      ],
      "name": "revokeRoles",
      "outputs": [],
      "stateMutability": "nonpayable",
      "type": "function"
    },
    {
      "inputs": [
        {
          "internalType": "address",
          "name": "",
          "type": "address"
        }
      ],
      "name": "rewards",
      "outputs": [
        {
          "internalType": "uint128",
          "name": "accumulated",
          "type": "uint128"
        },
        {
          "internalType": "uint128",
          "name": "checkpoint",
          "type": "uint128"
        }
      ],
      "stateMutability": "view",
      "type": "function"
    },
    {
      "inputs": [],
      "name": "rewardsPerToken",
      "outputs": [
        {
          "internalType": "uint128",
          "name": "accumulated",
          "type": "uint128"
        },
        {
          "internalType": "uint32",
          "name": "lastUpdated",
          "type": "uint32"
        },
        {
          "internalType": "uint96",
          "name": "rate",
          "type": "uint96"
        }
      ],
      "stateMutability": "view",
      "type": "function"
    },
    {
      "inputs": [],
      "name": "rewardsPeriod",
      "outputs": [
        {
          "internalType": "uint32",
          "name": "start",
          "type": "uint32"
        },
        {
          "internalType": "uint32",
          "name": "end",
          "type": "uint32"
        }
      ],
      "stateMutability": "view",
      "type": "function"
    },
    {
      "inputs": [],
      "name": "rewardsToken",
      "outputs": [
        {
          "internalType": "contract IERC20",
          "name": "",
          "type": "address"
        }
      ],
      "stateMutability": "view",
      "type": "function"
    },
    {
      "inputs": [
        {
          "internalType": "uint32",
          "name": "start",
          "type": "uint32"
        },
        {
          "internalType": "uint32",
          "name": "end",
          "type": "uint32"
        },
        {
          "internalType": "uint96",
          "name": "rate",
          "type": "uint96"
        }
      ],
      "name": "setRewards",
      "outputs": [],
      "stateMutability": "nonpayable",
      "type": "function"
    },
    {
      "inputs": [
        {
          "internalType": "bytes4",
          "name": "role",
          "type": "bytes4"
        },
        {
          "internalType": "bytes4",
          "name": "adminRole",
          "type": "bytes4"
        }
      ],
      "name": "setRoleAdmin",
      "outputs": [],
      "stateMutability": "nonpayable",
      "type": "function"
    },
    {
      "inputs": [],
      "name": "symbol",
      "outputs": [
        {
          "internalType": "string",
          "name": "",
          "type": "string"
        }
      ],
      "stateMutability": "view",
      "type": "function"
    },
    {
      "inputs": [],
      "name": "totalSupply",
      "outputs": [
        {
          "internalType": "uint256",
          "name": "",
          "type": "uint256"
        }
      ],
      "stateMutability": "view",
      "type": "function"
    },
    {
      "inputs": [
        {
          "internalType": "address",
          "name": "dst",
          "type": "address"
        },
        {
          "internalType": "uint256",
          "name": "wad",
          "type": "uint256"
        }
      ],
      "name": "transfer",
      "outputs": [
        {
          "internalType": "bool",
          "name": "",
          "type": "bool"
        }
      ],
      "stateMutability": "nonpayable",
      "type": "function"
    },
    {
      "inputs": [
        {
          "internalType": "address",
          "name": "src",
          "type": "address"
        },
        {
          "internalType": "address",
          "name": "dst",
          "type": "address"
        },
        {
          "internalType": "uint256",
          "name": "wad",
          "type": "uint256"
        }
      ],
      "name": "transferFrom",
      "outputs": [
        {
          "internalType": "bool",
          "name": "",
          "type": "bool"
        }
      ],
      "stateMutability": "nonpayable",
      "type": "function"
    },
    {
      "inputs": [],
      "name": "version",
      "outputs": [
        {
          "internalType": "string",
          "name": "",
          "type": "string"
        }
      ],
      "stateMutability": "pure",
      "type": "function"
    },
    {
      "inputs": [
        {
          "internalType": "address",
          "name": "to",
          "type": "address"
        },
        {
          "internalType": "uint256",
          "name": "amount",
          "type": "uint256"
        }
      ],
      "name": "mint",
      "outputs": [],
      "stateMutability": "nonpayable",
      "type": "function"
    },
    {
      "inputs": [
        {
          "internalType": "address",
          "name": "from",
          "type": "address"
        },
        {
          "internalType": "uint256",
          "name": "amount",
          "type": "uint256"
        }
      ],
      "name": "burn",
      "outputs": [],
      "stateMutability": "nonpayable",
      "type": "function"
    },
    {
      "inputs": [],
      "name": "updateRewardsPerToken",
      "outputs": [
        {
          "internalType": "uint128",
          "name": "",
          "type": "uint128"
        }
      ],
      "stateMutability": "nonpayable",
      "type": "function"
    },
    {
      "inputs": [
        {
          "internalType": "address",
          "name": "user",
          "type": "address"
        }
      ],
      "name": "updateUserRewards",
      "outputs": [
        {
          "internalType": "uint128",
          "name": "",
          "type": "uint128"
        }
      ],
      "stateMutability": "nonpayable",
      "type": "function"
    }
  ],
  "bytecode": "0x6101006040526040518060400160405280600381526020017f3f3f3f0000000000000000000000000000000000000000000000000000000000815250600490805190602001906200005292919062000661565b506040518060400160405280600381526020017f3f3f3f000000000000000000000000000000000000000000000000000000000081525060059080519060200190620000a092919062000661565b506012600660006101000a81548160ff021916908360ff1602179055507f6e71edae12b1b97f4d1f60370fef10105fa2faae0126114a169c64845d6126c9608090815250348015620000f157600080fd5b5060405162004b8c38038062004b8c8339818101604052810190620001179190620007b1565b8383838383838382828262000137600060e01b336200021560201b60201c565b6200015763ffffffff60e01b63ffffffff60e01b6200035460201b60201c565b82600490805190602001906200016f92919062000661565b5081600590805190602001906200018892919062000661565b5080600660006101000a81548160ff021916908360ff16021790555050505060004690508060c08181525050620001c5816200048a60201b60201c565b60a08181525050505050508073ffffffffffffffffffffffffffffffffffffffff1660e08173ffffffffffffffffffffffffffffffffffffffff1660601b81525050505050505050505062000b71565b6200022782826200051260201b60201c565b62000350576001600080847bffffffffffffffffffffffffffffffffffffffffffffffffffffffff19167bffffffffffffffffffffffffffffffffffffffffffffffffffffffff1916815260200190815260200160002060000160008373ffffffffffffffffffffffffffffffffffffffff1673ffffffffffffffffffffffffffffffffffffffff16815260200190815260200160002060006101000a81548160ff0219169083151502179055503373ffffffffffffffffffffffffffffffffffffffff168173ffffffffffffffffffffffffffffffffffffffff16837bffffffffffffffffffffffffffffffffffffffffffffffffffffffff19167fe6231789d19137da31d0550f4ba9ee379020a8cfb64cb79bf1790c996d2e616560405160405180910390a45b5050565b807bffffffffffffffffffffffffffffffffffffffffffffffffffffffff19166200038583620005ba60201b60201c565b7bffffffffffffffffffffffffffffffffffffffffffffffffffffffff191614620004865780600080847bffffffffffffffffffffffffffffffffffffffffffffffffffffffff19167bffffffffffffffffffffffffffffffffffffffffffffffffffffffff1916815260200190815260200160002060010160006101000a81548163ffffffff021916908360e01c0217905550807bffffffffffffffffffffffffffffffffffffffffffffffffffffffff1916827bffffffffffffffffffffffffffffffffffffffffffffffffffffffff19167fd348e2220a50b4500ec353f6e802d2f14dd1b5d6786148fd1bbcc570bf92d47360405160405180910390a35b5050565b60007f8b73c3c69bb8fe3d512ecc4cf759cc79239f7b179b0ffacaa9a75d522b39400f6004604051620004be91906200090d565b6040518091039020620004d66200062460201b60201c565b805190602001208430604051602001620004f595949392919062000926565b604051602081830303815290604052805190602001209050919050565b6000806000847bffffffffffffffffffffffffffffffffffffffffffffffffffffffff19167bffffffffffffffffffffffffffffffffffffffffffffffffffffffff1916815260200190815260200160002060000160008373ffffffffffffffffffffffffffffffffffffffff1673ffffffffffffffffffffffffffffffffffffffff16815260200190815260200160002060009054906101000a900460ff16905092915050565b6000806000837bffffffffffffffffffffffffffffffffffffffffffffffffffffffff19167bffffffffffffffffffffffffffffffffffffffffffffffffffffffff1916815260200190815260200160002060010160009054906101000a900460e01b9050919050565b60606040518060400160405280600181526020017f3100000000000000000000000000000000000000000000000000000000000000815250905090565b8280546200066f9062000aa9565b90600052602060002090601f016020900481019282620006935760008555620006df565b82601f10620006ae57805160ff1916838001178555620006df565b82800160010185558215620006df579182015b82811115620006de578251825591602001919060010190620006c1565b5b509050620006ee9190620006f2565b5090565b5b808211156200070d576000816000905550600101620006f3565b5090565b6000620007286200072284620009b7565b62000983565b9050828152602081018484840111156200074157600080fd5b6200074e84828562000a73565b509392505050565b600081519050620007678162000b3d565b92915050565b600082601f8301126200077f57600080fd5b81516200079184826020860162000711565b91505092915050565b600081519050620007ab8162000b57565b92915050565b60008060008060808587031215620007c857600080fd5b600085015167ffffffffffffffff811115620007e357600080fd5b620007f1878288016200076d565b945050602085015167ffffffffffffffff8111156200080f57600080fd5b6200081d878288016200076d565b935050604062000830878288016200079a565b9250506060620008438782880162000756565b91505092959194509250565b6200085a8162000a0a565b82525050565b6200086b8162000a1e565b82525050565b60008154620008808162000aa9565b6200088c8186620009ff565b94506001821660008114620008aa5760018114620008bc57620008f3565b60ff19831686528186019350620008f3565b620008c785620009ea565b60005b83811015620008eb57815481890152600182019150602081019050620008ca565b838801955050505b50505092915050565b620009078162000a5c565b82525050565b60006200091b828462000871565b915081905092915050565b600060a0820190506200093d600083018862000860565b6200094c602083018762000860565b6200095b604083018662000860565b6200096a6060830185620008fc565b6200097960808301846200084f565b9695505050505050565b6000604051905081810181811067ffffffffffffffff82111715620009ad57620009ac62000b0e565b5b8060405250919050565b600067ffffffffffffffff821115620009d557620009d462000b0e565b5b601f19601f8301169050602081019050919050565b60008190508160005260206000209050919050565b600081905092915050565b600062000a178262000a3c565b9050919050565b6000819050919050565b600062000a358262000a0a565b9050919050565b600073ffffffffffffffffffffffffffffffffffffffff82169050919050565b6000819050919050565b600060ff82169050919050565b60005b8381101562000a9357808201518184015260208101905062000a76565b8381111562000aa3576000848401525b50505050565b6000600282049050600182168062000ac257607f821691505b6020821081141562000ad95762000ad862000adf565b5b50919050565b7f4e487b7100000000000000000000000000000000000000000000000000000000600052602260045260246000fd5b7f4e487b7100000000000000000000000000000000000000000000000000000000600052604160045260246000fd5b62000b488162000a28565b811462000b5457600080fd5b50565b62000b628162000a66565b811462000b6e57600080fd5b50565b60805160a05160c05160e05160601c613fbb62000bd1600039600081816108d201526111560152600081816109e601528181611132015261126c015260008181610a1b01526112a10152600081816109a901526111c40152613fbb6000f3fe608060405234801561001057600080fd5b506004361061021c5760003560e01c8063687f0e4c11610125578063ad82110f116100ad578063d505accf1161007c578063d505accf14610659578063dd62ed3e14610675578063de02cde7146106a5578063effae353146106c1578063f31878ae146106dd5761021c565b8063ad82110f146105e5578063ae93c1b514610601578063cd0d00961461061d578063d1af0c7d1461063b5761021c565b806395d89b41116100f457806395d89b41146105415780639dc29fac1461055f578063a354f39e1461057b578063a4f0d7d014610597578063a9059cbb146105b55761021c565b8063687f0e4c146104a557806370641a36146104c157806370a08231146104e15780637ecebe00146105115761021c565b8063313ce567116101a857806344faded01161017757806344faded01461040157806354fd4d501461041d578063559742d91461043b5780635909c12f146104575780635ba5e9f0146104755761021c565b8063313ce5671461038b5780633644e515146103a95780633d06cc6f146103c757806340c10f19146103e55761021c565b806318160ddd116101ef57806318160ddd146102d05780631e83409a146102ee57806323b872dd1461031e57806326ae2b781461034e57806330adf81f1461036d5761021c565b806306fdde03146102215780630700037d1461023f578063095ea7b31461027057806310ab9432146102a0575b600080fd5b61022961070d565b604051610236919061377b565b60405180910390f35b61025960048036038101906102549190612da1565b61079b565b604051610267929190613913565b60405180910390f35b61028a60048036038101906102859190612ef3565b6107f7565b6040516102979190613616565b60405180910390f35b6102ba60048036038101906102b59190612fd5565b61080c565b6040516102c79190613616565b60405180910390f35b6102d8610820565b6040516102e59190613973565b60405180910390f35b61030860048036038101906103039190612da1565b61082a565b6040516103159190613973565b60405180910390f35b61033860048036038101906103339190612e06565b610954565b6040516103459190613616565b60405180910390f35b610356610975565b60405161036492919061398e565b60405180910390f35b6103756109a7565b6040516103829190613631565b60405180910390f35b6103936109cb565b6040516103a091906139ee565b60405180910390f35b6103b16109de565b6040516103be9190613631565b60405180910390f35b6103cf610a41565b6040516103dc91906138dd565b60405180910390f35b6103ff60048036038101906103fa9190612ef3565b610a72565b005b61041b60048036038101906104169190612fd5565b610a81565b005b610425610ae2565b604051610432919061377b565b60405180910390f35b61045560048036038101906104509190612fac565b610b1f565b005b61045f610b86565b60405161046c9190613745565b60405180910390f35b61048f600480360381019061048a9190612fac565b610b8e565b60405161049c9190613745565b60405180910390f35b6104bf60048036038101906104ba9190612fd5565b610ba0565b005b6104c9610c1c565b6040516104d89392919061393c565b60405180910390f35b6104fb60048036038101906104f69190612da1565b610c78565b6040516105089190613973565b60405180910390f35b61052b60048036038101906105269190612da1565b610cc1565b6040516105389190613973565b60405180910390f35b610549610cd9565b604051610556919061377b565b60405180910390f35b61057960048036038101906105749190612ef3565b610d67565b005b6105956004803603810190610590919061308e565b610d76565b005b61059f610fb0565b6040516105ac9190613745565b60405180910390f35b6105cf60048036038101906105ca9190612ef3565b610fbb565b6040516105dc9190613616565b60405180910390f35b6105ff60048036038101906105fa9190612f2f565b610fd0565b005b61061b60048036038101906106169190613011565b6110cf565b005b610625611130565b6040516106329190613973565b60405180910390f35b610643611154565b6040516106509190613760565b60405180910390f35b610673600480360381019061066e9190612e55565b611178565b005b61068f600480360381019061068a9190612dca565b6113fe565b60405161069c9190613973565b60405180910390f35b6106bf60048036038101906106ba9190612fd5565b611485565b005b6106db60048036038101906106d69190612f2f565b6114e6565b005b6106f760048036038101906106f29190612da1565b6115e5565b60405161070491906138dd565b60405180910390f35b6004805461071a90613d7b565b80601f016020809104026020016040519081016040528092919081815260200182805461074690613d7b565b80156107935780601f1061076857610100808354040283529160200191610793565b820191906000526020600020905b81548152906001019060200180831161077657829003601f168201915b505050505081565b600a6020528060005260406000206000915090508060000160009054906101000a90046fffffffffffffffffffffffffffffffff16908060000160109054906101000a90046fffffffffffffffffffffffffffffffff16905082565b60006108043384846115f7565b905092915050565b600061081883836116ea565b905092915050565b6000600154905090565b6000610834611792565b61083d33611abf565b6fffffffffffffffffffffffffffffffff1690506000600a60003373ffffffffffffffffffffffffffffffffffffffff1673ffffffffffffffffffffffffffffffffffffffff16815260200190815260200160002060000160006101000a8154816fffffffffffffffffffffffffffffffff02191690836fffffffffffffffffffffffffffffffff16021790555061091682827f000000000000000000000000000000000000000000000000000000000000000073ffffffffffffffffffffffffffffffffffffffff16611e829092919063ffffffff16565b7fd8138f8a3f377c5259ca548e70e4c2de94f129f5a11036a15b69513cba2b426a82826040516109479291906135ed565b60405180910390a1919050565b60006109608483611fe1565b5061096c84848461211c565b90509392505050565b60088060000160009054906101000a900463ffffffff16908060000160049054906101000a900463ffffffff16905082565b7f000000000000000000000000000000000000000000000000000000000000000081565b600660009054906101000a900460ff1681565b6000804690507f00000000000000000000000000000000000000000000000000000000000000008114610a1957610a148161214e565b610a3b565b7f00000000000000000000000000000000000000000000000000000000000000005b91505090565b6000610a4b611792565b600960000160009054906101000a90046fffffffffffffffffffffffffffffffff16905090565b610a7c82826121ca565b505050565b81610a94610a8e826121f0565b336116ea565b610ad3576040517f08c379a0000000000000000000000000000000000000000000000000000000008152600401610aca906137fd565b60405180910390fd5b610add838361225a565b505050565b60606040518060400160405280600181526020017f3100000000000000000000000000000000000000000000000000000000000000815250905090565b80610b32610b2c826121f0565b336116ea565b610b71576040517f08c379a0000000000000000000000000000000000000000000000000000000008152600401610b68906137fd565b60405180910390fd5b610b828263ffffffff60e01b612391565b5050565b600060e01b81565b6000610b99826121f0565b9050919050565b3373ffffffffffffffffffffffffffffffffffffffff168173ffffffffffffffffffffffffffffffffffffffff1614610c0e576040517f08c379a0000000000000000000000000000000000000000000000000000000008152600401610c059061387d565b60405180910390fd5b610c18828261225a565b5050565b60098060000160009054906101000a90046fffffffffffffffffffffffffffffffff16908060000160109054906101000a900463ffffffff16908060000160149054906101000a90046bffffffffffffffffffffffff16905083565b6000600260008373ffffffffffffffffffffffffffffffffffffffff1673ffffffffffffffffffffffffffffffffffffffff168152602001908152602001600020549050919050565b60076020528060005260406000206000915090505481565b60058054610ce690613d7b565b80601f0160208091040260200160405190810160405280929190818152602001828054610d1290613d7b565b8015610d5f5780601f10610d3457610100808354040283529160200191610d5f565b820191906000526020600020905b815481529060010190602001808311610d4257829003601f168201915b505050505081565b610d7182826124be565b505050565b610da46000357fffffffff0000000000000000000000000000000000000000000000000000000016336116ea565b610de3576040517f08c379a0000000000000000000000000000000000000000000000000000000008152600401610dda9061389d565b60405180910390fd5b8163ffffffff168363ffffffff161115610e32576040517f08c379a0000000000000000000000000000000000000000000000000000000008152600401610e299061383d565b60405180910390fd5b600860000160009054906101000a900463ffffffff1663ffffffff16610e57426124e4565b63ffffffff161080610e915750600860000160049054906101000a900463ffffffff1663ffffffff16610e89426124e4565b63ffffffff16115b610ed0576040517f08c379a0000000000000000000000000000000000000000000000000000000008152600401610ec7906138bd565b60405180910390fd5b82600860000160006101000a81548163ffffffff021916908363ffffffff16021790555081600860000160046101000a81548163ffffffff021916908363ffffffff16021790555082600960000160106101000a81548163ffffffff021916908363ffffffff16021790555080600960000160146101000a8154816bffffffffffffffffffffffff02191690836bffffffffffffffffffffffff1602179055507f95efd8a2a0aa591f48fd9673cf5d13c2150ca7a1fe1cbe438dd3f0ae47064663838383604051610fa3939291906139b7565b60405180910390a1505050565b63ffffffff60e01b81565b6000610fc833848461211c565b905092915050565b60005b82518110156110ca5761102e61102884838151811061101b577f4e487b7100000000000000000000000000000000000000000000000000000000600052603260045260246000fd5b60200260200101516121f0565b336116ea565b61106d576040517f08c379a0000000000000000000000000000000000000000000000000000000008152600401611064906137fd565b60405180910390fd5b6110b78382815181106110a9577f4e487b7100000000000000000000000000000000000000000000000000000000600052603260045260246000fd5b60200260200101518361225a565b80806110c290613dad565b915050610fd3565b505050565b816110e26110dc826121f0565b336116ea565b611121576040517f08c379a0000000000000000000000000000000000000000000000000000000008152600401611118906137fd565b60405180910390fd5b61112b8383612391565b505050565b7f000000000000000000000000000000000000000000000000000000000000000081565b7f000000000000000000000000000000000000000000000000000000000000000081565b428410156111bb576040517f08c379a00000000000000000000000000000000000000000000000000000000081526004016111b2906137bd565b60405180910390fd5b600046905060007f0000000000000000000000000000000000000000000000000000000000000000898989600760008e73ffffffffffffffffffffffffffffffffffffffff1673ffffffffffffffffffffffffffffffffffffffff168152602001908152602001600020600081548092919061123690613dad565b919050558a6040516020016112509695949392919061364c565b60405160208183030381529060405280519060200120905060007f0000000000000000000000000000000000000000000000000000000000000000831461129f5761129a8361214e565b6112c1565b7f00000000000000000000000000000000000000000000000000000000000000005b826040516020016112d392919061357f565b6040516020818303038152906040528051906020012090506000600182888888604051600081526020016040526040516113109493929190613700565b6020604051602081039080840390855afa158015611332573d6000803e3d6000fd5b505050602060405103519050600073ffffffffffffffffffffffffffffffffffffffff168173ffffffffffffffffffffffffffffffffffffffff16141580156113a657508a73ffffffffffffffffffffffffffffffffffffffff168173ffffffffffffffffffffffffffffffffffffffff16145b6113e5576040517f08c379a00000000000000000000000000000000000000000000000000000000081526004016113dc9061385d565b60405180910390fd5b6113f08b8b8b6115f7565b505050505050505050505050565b6000600360008473ffffffffffffffffffffffffffffffffffffffff1673ffffffffffffffffffffffffffffffffffffffff16815260200190815260200160002060008373ffffffffffffffffffffffffffffffffffffffff1673ffffffffffffffffffffffffffffffffffffffff16815260200190815260200160002054905092915050565b81611498611492826121f0565b336116ea565b6114d7576040517f08c379a00000000000000000000000000000000000000000000000000000000081526004016114ce906137fd565b60405180910390fd5b6114e18383612537565b505050565b60005b82518110156115e05761154461153e848381518110611531577f4e487b7100000000000000000000000000000000000000000000000000000000600052603260045260246000fd5b60200260200101516121f0565b336116ea565b611583576040517f08c379a000000000000000000000000000000000000000000000000000000000815260040161157a906137fd565b60405180910390fd5b6115cd8382815181106115bf577f4e487b7100000000000000000000000000000000000000000000000000000000600052603260045260246000fd5b602002602001015183612537565b80806115d890613dad565b9150506114e9565b505050565b60006115f082611abf565b9050919050565b600081600360008673ffffffffffffffffffffffffffffffffffffffff1673ffffffffffffffffffffffffffffffffffffffff16815260200190815260200160002060008573ffffffffffffffffffffffffffffffffffffffff1673ffffffffffffffffffffffffffffffffffffffff168152602001908152602001600020819055508273ffffffffffffffffffffffffffffffffffffffff168473ffffffffffffffffffffffffffffffffffffffff167f8c5be1e5ebec7d5bd14f71427d1e84f3dd0314c0f7b2291e5b200ac8c7c3b925846040516116d79190613973565b60405180910390a3600190509392505050565b6000806000847bffffffffffffffffffffffffffffffffffffffffffffffffffffffff19167bffffffffffffffffffffffffffffffffffffffffffffffffffffffff1916815260200190815260200160002060000160008373ffffffffffffffffffffffffffffffffffffffff1673ffffffffffffffffffffffffffffffffffffffff16815260200190815260200160002060009054906101000a900460ff16905092915050565b600060096040518060600160405290816000820160009054906101000a90046fffffffffffffffffffffffffffffffff166fffffffffffffffffffffffffffffffff166fffffffffffffffffffffffffffffffff1681526020016000820160109054906101000a900463ffffffff1663ffffffff1663ffffffff1681526020016000820160149054906101000a90046bffffffffffffffffffffffff166bffffffffffffffffffffffff166bffffffffffffffffffffffff16815250509050600060086040518060400160405290816000820160009054906101000a900463ffffffff1663ffffffff1663ffffffff1681526020016000820160049054906101000a900463ffffffff1663ffffffff1663ffffffff1681525050905060006001549050816000015163ffffffff166118c9426124e4565b63ffffffff1610156118dd57505050611abd565b60006118f56118eb426124e4565b846020015161266d565b905060008460200151826119099190613bfd565b63ffffffff1690506000811415611924575050505050611abd565b600083146119c1576119918386604001516bffffffffffffffffffffffff1683670de0b6b3a76400006119579190613b6f565b6119619190613b6f565b61196b9190613b3e565b86600001516fffffffffffffffffffffffffffffffff1661198c9190613ae8565b612692565b85600001906fffffffffffffffffffffffffffffffff1690816fffffffffffffffffffffffffffffffff16815250505b81856020019063ffffffff16908163ffffffff168152505084600960008201518160000160006101000a8154816fffffffffffffffffffffffffffffffff02191690836fffffffffffffffffffffffffffffffff16021790555060208201518160000160106101000a81548163ffffffff021916908363ffffffff16021790555060408201518160000160146101000a8154816bffffffffffffffffffffffff02191690836bffffffffffffffffffffffff1602179055509050507fe972555b20cae8150e291bb40efce3ef4e3ed6b6b2c39c029346600e95469d488560000151604051611aaf91906138f8565b60405180910390a150505050505b565b600080600a60008473ffffffffffffffffffffffffffffffffffffffff1673ffffffffffffffffffffffffffffffffffffffff1681526020019081526020016000206040518060400160405290816000820160009054906101000a90046fffffffffffffffffffffffffffffffff166fffffffffffffffffffffffffffffffff166fffffffffffffffffffffffffffffffff1681526020016000820160109054906101000a90046fffffffffffffffffffffffffffffffff166fffffffffffffffffffffffffffffffff166fffffffffffffffffffffffffffffffff16815250509050600060096040518060600160405290816000820160009054906101000a90046fffffffffffffffffffffffffffffffff166fffffffffffffffffffffffffffffffff166fffffffffffffffffffffffffffffffff1681526020016000820160109054906101000a900463ffffffff1663ffffffff1663ffffffff1681526020016000820160149054906101000a90046bffffffffffffffffffffffff166bffffffffffffffffffffffff166bffffffffffffffffffffffff16815250509050611d0d670de0b6b3a764000083602001518360000151611c819190613bc9565b6fffffffffffffffffffffffffffffffff16600260008873ffffffffffffffffffffffffffffffffffffffff1673ffffffffffffffffffffffffffffffffffffffff16815260200190815260200160002054611cdd9190613b6f565b611ce79190613b3e565b83600001516fffffffffffffffffffffffffffffffff16611d089190613ae8565b612692565b82600001906fffffffffffffffffffffffffffffffff1690816fffffffffffffffffffffffffffffffff1681525050806000015182602001906fffffffffffffffffffffffffffffffff1690816fffffffffffffffffffffffffffffffff168152505081600a60008673ffffffffffffffffffffffffffffffffffffffff1673ffffffffffffffffffffffffffffffffffffffff16815260200190815260200160002060008201518160000160006101000a8154816fffffffffffffffffffffffffffffffff02191690836fffffffffffffffffffffffffffffffff16021790555060208201518160000160106101000a8154816fffffffffffffffffffffffffffffffff02191690836fffffffffffffffffffffffffffffffff1602179055509050507f5b9aaf4cc5141c090a75f8b8a627863eba92df81f0c83c096350da9b79aedd048483600001518460200151604051611e6c939291906135b6565b60405180910390a1816000015192505050919050565b6000808473ffffffffffffffffffffffffffffffffffffffff1663a9059cbb60e01b8585604051602401611eb79291906135ed565b604051602081830303815290604052907bffffffffffffffffffffffffffffffffffffffffffffffffffffffff19166020820180517bffffffffffffffffffffffffffffffffffffffffffffffffffffffff8381831617835250505050604051611f219190613551565b6000604051808303816000865af19150503d8060008114611f5e576040519150601f19603f3d011682016040523d82523d6000602084013e611f63565b606091505b5091509150818015611f915750600081511480611f90575080806020019051810190611f8f9190612f83565b5b5b611fda57611f9e816126f1565b6040517f08c379a0000000000000000000000000000000000000000000000000000000008152600401611fd1919061377b565b60405180910390fd5b5050505050565b60003373ffffffffffffffffffffffffffffffffffffffff168373ffffffffffffffffffffffffffffffffffffffff1614612112576000600360008573ffffffffffffffffffffffffffffffffffffffff1673ffffffffffffffffffffffffffffffffffffffff16815260200190815260200160002060003373ffffffffffffffffffffffffffffffffffffffff1673ffffffffffffffffffffffffffffffffffffffff1681526020019081526020016000205490507fffffffffffffffffffffffffffffffffffffffffffffffffffffffffffffffff81146121105782811015612101576040517f08c379a00000000000000000000000000000000000000000000000000000000081526004016120f8906137dd565b60405180910390fd5b61210e84338584036115f7565b505b505b6001905092915050565b6000612126611792565b61212f84611abf565b5061213983611abf565b5061214584848461275c565b90509392505050565b60007f8b73c3c69bb8fe3d512ecc4cf759cc79239f7b179b0ffacaa9a75d522b39400f60046040516121809190613568565b6040518091039020612190610ae2565b8051906020012084306040516020016121ad9594939291906136ad565b604051602081830303815290604052805190602001209050919050565b60006121d4611792565b6121dd83611abf565b506121e88383612963565b905092915050565b6000806000837bffffffffffffffffffffffffffffffffffffffffffffffffffffffff19167bffffffffffffffffffffffffffffffffffffffffffffffffffffffff1916815260200190815260200160002060010160009054906101000a900460e01b9050919050565b61226482826116ea565b1561238d576000806000847bffffffffffffffffffffffffffffffffffffffffffffffffffffffff19167bffffffffffffffffffffffffffffffffffffffffffffffffffffffff1916815260200190815260200160002060000160008373ffffffffffffffffffffffffffffffffffffffff1673ffffffffffffffffffffffffffffffffffffffff16815260200190815260200160002060006101000a81548160ff0219169083151502179055503373ffffffffffffffffffffffffffffffffffffffff168173ffffffffffffffffffffffffffffffffffffffff16837bffffffffffffffffffffffffffffffffffffffffffffffffffffffff19167f4ddc7b757e7bdd7254a9cd39452d307a52761bc824625c6a33104a075d8099e660405160405180910390a45b5050565b807bffffffffffffffffffffffffffffffffffffffffffffffffffffffff19166123ba836121f0565b7bffffffffffffffffffffffffffffffffffffffffffffffffffffffff1916146124ba5780600080847bffffffffffffffffffffffffffffffffffffffffffffffffffffffff19167bffffffffffffffffffffffffffffffffffffffffffffffffffffffff1916815260200190815260200160002060010160006101000a81548163ffffffff021916908360e01c0217905550807bffffffffffffffffffffffffffffffffffffffffffffffffffffffff1916827bffffffffffffffffffffffffffffffffffffffffffffffffffffffff19167fd348e2220a50b4500ec353f6e802d2f14dd1b5d6786148fd1bbcc570bf92d47360405160405180910390a35b5050565b60006124c8611792565b6124d183611abf565b506124dc8383612a77565b905092915050565b600063ffffffff801682111561252f576040517f08c379a00000000000000000000000000000000000000000000000000000000081526004016125269061379d565b60405180910390fd5b819050919050565b61254182826116ea565b612669576001600080847bffffffffffffffffffffffffffffffffffffffffffffffffffffffff19167bffffffffffffffffffffffffffffffffffffffffffffffffffffffff1916815260200190815260200160002060000160008373ffffffffffffffffffffffffffffffffffffffff1673ffffffffffffffffffffffffffffffffffffffff16815260200190815260200160002060006101000a81548160ff0219169083151502179055503373ffffffffffffffffffffffffffffffffffffffff168173ffffffffffffffffffffffffffffffffffffffff16837bffffffffffffffffffffffffffffffffffffffffffffffffffffffff19167fe6231789d19137da31d0550f4ba9ee379020a8cfb64cb79bf1790c996d2e616560405160405180910390a45b5050565b60008163ffffffff168363ffffffff1610612688578161268a565b825b905092915050565b60006fffffffffffffffffffffffffffffffff80168211156126e9576040517f08c379a00000000000000000000000000000000000000000000000000000000081526004016126e09061379d565b60405180910390fd5b819050919050565b606060448251101561273a576040518060400160405280601d81526020017f5472616e73616374696f6e2072657665727465642073696c656e746c790000008152509050612757565b60048201915081806020019051810190612754919061304d565b90505b919050565b600081600260008673ffffffffffffffffffffffffffffffffffffffff1673ffffffffffffffffffffffffffffffffffffffff1681526020019081526020016000205410156127e0576040517f08c379a00000000000000000000000000000000000000000000000000000000081526004016127d79061381d565b60405180910390fd5b81600260008673ffffffffffffffffffffffffffffffffffffffff1673ffffffffffffffffffffffffffffffffffffffff1681526020019081526020016000205403600260008673ffffffffffffffffffffffffffffffffffffffff1673ffffffffffffffffffffffffffffffffffffffff1681526020019081526020016000208190555081600260008573ffffffffffffffffffffffffffffffffffffffff1673ffffffffffffffffffffffffffffffffffffffff168152602001908152602001600020546128b09190613ae8565b600260008573ffffffffffffffffffffffffffffffffffffffff1673ffffffffffffffffffffffffffffffffffffffff168152602001908152602001600020819055508273ffffffffffffffffffffffffffffffffffffffff168473ffffffffffffffffffffffffffffffffffffffff167fddf252ad1be2c89b69c2b068fc378daa952ba7f163c4a11628f55a4df523b3ef846040516129509190613973565b60405180910390a3600190509392505050565b600081600260008573ffffffffffffffffffffffffffffffffffffffff1673ffffffffffffffffffffffffffffffffffffffff168152602001908152602001600020546129b09190613ae8565b600260008573ffffffffffffffffffffffffffffffffffffffff1673ffffffffffffffffffffffffffffffffffffffff1681526020019081526020016000208190555081600154612a019190613ae8565b6001819055508273ffffffffffffffffffffffffffffffffffffffff16600073ffffffffffffffffffffffffffffffffffffffff167fddf252ad1be2c89b69c2b068fc378daa952ba7f163c4a11628f55a4df523b3ef84604051612a659190613973565b60405180910390a36001905092915050565b600081600260008573ffffffffffffffffffffffffffffffffffffffff1673ffffffffffffffffffffffffffffffffffffffff168152602001908152602001600020541015612afb576040517f08c379a0000000000000000000000000000000000000000000000000000000008152600401612af29061381d565b60405180910390fd5b81600260008573ffffffffffffffffffffffffffffffffffffffff1673ffffffffffffffffffffffffffffffffffffffff1681526020019081526020016000205403600260008573ffffffffffffffffffffffffffffffffffffffff1673ffffffffffffffffffffffffffffffffffffffff168152602001908152602001600020819055508160015403600181905550600073ffffffffffffffffffffffffffffffffffffffff168373ffffffffffffffffffffffffffffffffffffffff167fddf252ad1be2c89b69c2b068fc378daa952ba7f163c4a11628f55a4df523b3ef84604051612be99190613973565b60405180910390a36001905092915050565b6000612c0e612c0984613a3a565b613a09565b90508083825260208201905082856020860282011115612c2d57600080fd5b60005b85811015612c5d5781612c438882612d0e565b845260208401935060208301925050600181019050612c30565b5050509392505050565b6000612c7a612c7584613a66565b613a09565b905082815260208101848484011115612c9257600080fd5b612c9d848285613d48565b509392505050565b600081359050612cb481613ecd565b92915050565b600082601f830112612ccb57600080fd5b8135612cdb848260208601612bfb565b91505092915050565b600081519050612cf381613ee4565b92915050565b600081359050612d0881613efb565b92915050565b600081359050612d1d81613f12565b92915050565b600082601f830112612d3457600080fd5b8151612d44848260208601612c67565b91505092915050565b600081359050612d5c81613f29565b92915050565b600081359050612d7181613f40565b92915050565b600081359050612d8681613f57565b92915050565b600081359050612d9b81613f6e565b92915050565b600060208284031215612db357600080fd5b6000612dc184828501612ca5565b91505092915050565b60008060408385031215612ddd57600080fd5b6000612deb85828601612ca5565b9250506020612dfc85828601612ca5565b9150509250929050565b600080600060608486031215612e1b57600080fd5b6000612e2986828701612ca5565b9350506020612e3a86828701612ca5565b9250506040612e4b86828701612d4d565b9150509250925092565b600080600080600080600060e0888a031215612e7057600080fd5b6000612e7e8a828b01612ca5565b9750506020612e8f8a828b01612ca5565b9650506040612ea08a828b01612d4d565b9550506060612eb18a828b01612d4d565b9450506080612ec28a828b01612d77565b93505060a0612ed38a828b01612cf9565b92505060c0612ee48a828b01612cf9565b91505092959891949750929550565b60008060408385031215612f0657600080fd5b6000612f1485828601612ca5565b9250506020612f2585828601612d4d565b9150509250929050565b60008060408385031215612f4257600080fd5b600083013567ffffffffffffffff811115612f5c57600080fd5b612f6885828601612cba565b9250506020612f7985828601612ca5565b9150509250929050565b600060208284031215612f9557600080fd5b6000612fa384828501612ce4565b91505092915050565b600060208284031215612fbe57600080fd5b6000612fcc84828501612d0e565b91505092915050565b60008060408385031215612fe857600080fd5b6000612ff685828601612d0e565b925050602061300785828601612ca5565b9150509250929050565b6000806040838503121561302457600080fd5b600061303285828601612d0e565b925050602061304385828601612d0e565b9150509250929050565b60006020828403121561305f57600080fd5b600082015167ffffffffffffffff81111561307957600080fd5b61308584828501612d23565b91505092915050565b6000806000606084860312156130a357600080fd5b60006130b186828701612d62565b93505060206130c286828701612d62565b92505060406130d386828701612d8c565b9150509250925092565b6130e681613c31565b82525050565b6130f581613c43565b82525050565b61310481613c4f565b82525050565b61311b61311682613c4f565b613df6565b82525050565b61312a81613c59565b82525050565b600061313b82613aab565b6131458185613ac1565b9350613155818560208601613d48565b80840191505092915050565b6000815461316e81613d7b565b6131788186613ac1565b9450600182166000811461319357600181146131a4576131d7565b60ff198316865281860193506131d7565b6131ad85613a96565b60005b838110156131cf578154818901526001820191506020810190506131b0565b838801955050505b50505092915050565b6131e981613d00565b82525050565b60006131fa82613ab6565b6132048185613acc565b9350613214818560208601613d48565b61321d81613ebc565b840191505092915050565b6000613235600d83613acc565b91507f43617374206f766572666c6f77000000000000000000000000000000000000006000830152602082019050919050565b6000613275600283613add565b91507f19010000000000000000000000000000000000000000000000000000000000006000830152600282019050919050565b60006132b5601d83613acc565b91507f45524332305065726d69743a206578706972656420646561646c696e650000006000830152602082019050919050565b60006132f5601c83613acc565b91507f45524332303a20496e73756666696369656e7420617070726f76616c000000006000830152602082019050919050565b6000613335600a83613acc565b91507f4f6e6c792061646d696e000000000000000000000000000000000000000000006000830152602082019050919050565b6000613375601b83613acc565b91507f45524332303a20496e73756666696369656e742062616c616e636500000000006000830152602082019050919050565b60006133b5600f83613acc565b91507f496e636f727265637420696e70757400000000000000000000000000000000006000830152602082019050919050565b60006133f5601e83613acc565b91507f45524332305065726d69743a20696e76616c6964207369676e617475726500006000830152602082019050919050565b6000613435601683613acc565b91507f52656e6f756e6365206f6e6c7920666f722073656c66000000000000000000006000830152602082019050919050565b6000613475600d83613acc565b91507f4163636573732064656e696564000000000000000000000000000000000000006000830152602082019050919050565b60006134b5600f83613acc565b91507f4f6e676f696e67207265776172647300000000000000000000000000000000006000830152602082019050919050565b6134f181613c85565b82525050565b61350081613d24565b82525050565b61350f81613cc1565b82525050565b61351e81613ccb565b82525050565b61352d81613cdb565b82525050565b61353c81613d36565b82525050565b61354b81613ce8565b82525050565b600061355d8284613130565b915081905092915050565b60006135748284613161565b915081905092915050565b600061358a82613268565b9150613596828561310a565b6020820191506135a6828461310a565b6020820191508190509392505050565b60006060820190506135cb60008301866130dd565b6135d860208301856134f7565b6135e560408301846134f7565b949350505050565b600060408201905061360260008301856130dd565b61360f6020830184613506565b9392505050565b600060208201905061362b60008301846130ec565b92915050565b600060208201905061364660008301846130fb565b92915050565b600060c08201905061366160008301896130fb565b61366e60208301886130dd565b61367b60408301876130dd565b6136886060830186613506565b6136956080830185613506565b6136a260a0830184613506565b979650505050505050565b600060a0820190506136c260008301886130fb565b6136cf60208301876130fb565b6136dc60408301866130fb565b6136e96060830185613506565b6136f660808301846130dd565b9695505050505050565b600060808201905061371560008301876130fb565b6137226020830186613524565b61372f60408301856130fb565b61373c60608301846130fb565b95945050505050565b600060208201905061375a6000830184613121565b92915050565b600060208201905061377560008301846131e0565b92915050565b6000602082019050818103600083015261379581846131ef565b905092915050565b600060208201905081810360008301526137b681613228565b9050919050565b600060208201905081810360008301526137d6816132a8565b9050919050565b600060208201905081810360008301526137f6816132e8565b9050919050565b6000602082019050818103600083015261381681613328565b9050919050565b6000602082019050818103600083015261383681613368565b9050919050565b60006020820190508181036000830152613856816133a8565b9050919050565b60006020820190508181036000830152613876816133e8565b9050919050565b6000602082019050818103600083015261389681613428565b9050919050565b600060208201905081810360008301526138b681613468565b9050919050565b600060208201905081810360008301526138d6816134a8565b9050919050565b60006020820190506138f260008301846134e8565b92915050565b600060208201905061390d60008301846134f7565b92915050565b600060408201905061392860008301856134e8565b61393560208301846134e8565b9392505050565b600060608201905061395160008301866134e8565b61395e6020830185613515565b61396b6040830184613542565b949350505050565b60006020820190506139886000830184613506565b92915050565b60006040820190506139a36000830185613515565b6139b06020830184613515565b9392505050565b60006060820190506139cc6000830186613515565b6139d96020830185613515565b6139e66040830184613533565b949350505050565b6000602082019050613a036000830184613524565b92915050565b6000604051905081810181811067ffffffffffffffff82111715613a3057613a2f613e8d565b5b8060405250919050565b600067ffffffffffffffff821115613a5557613a54613e8d565b5b602082029050602081019050919050565b600067ffffffffffffffff821115613a8157613a80613e8d565b5b601f19601f8301169050602081019050919050565b60008190508160005260206000209050919050565b600081519050919050565b600081519050919050565b600081905092915050565b600082825260208201905092915050565b600081905092915050565b6000613af382613cc1565b9150613afe83613cc1565b9250827fffffffffffffffffffffffffffffffffffffffffffffffffffffffffffffffff03821115613b3357613b32613e00565b5b828201905092915050565b6000613b4982613cc1565b9150613b5483613cc1565b925082613b6457613b63613e2f565b5b828204905092915050565b6000613b7a82613cc1565b9150613b8583613cc1565b9250817fffffffffffffffffffffffffffffffffffffffffffffffffffffffffffffffff0483118215151615613bbe57613bbd613e00565b5b828202905092915050565b6000613bd482613c85565b9150613bdf83613c85565b925082821015613bf257613bf1613e00565b5b828203905092915050565b6000613c0882613ccb565b9150613c1383613ccb565b925082821015613c2657613c25613e00565b5b828203905092915050565b6000613c3c82613ca1565b9050919050565b60008115159050919050565b6000819050919050565b60007fffffffff0000000000000000000000000000000000000000000000000000000082169050919050565b60006fffffffffffffffffffffffffffffffff82169050919050565b600073ffffffffffffffffffffffffffffffffffffffff82169050919050565b6000819050919050565b600063ffffffff82169050919050565b600060ff82169050919050565b60006bffffffffffffffffffffffff82169050919050565b6000613d0b82613d12565b9050919050565b6000613d1d82613ca1565b9050919050565b6000613d2f82613c85565b9050919050565b6000613d4182613ce8565b9050919050565b60005b83811015613d66578082015181840152602081019050613d4b565b83811115613d75576000848401525b50505050565b60006002820490506001821680613d9357607f821691505b60208210811415613da757613da6613e5e565b5b50919050565b6000613db882613cc1565b91507fffffffffffffffffffffffffffffffffffffffffffffffffffffffffffffffff821415613deb57613dea613e00565b5b600182019050919050565b6000819050919050565b7f4e487b7100000000000000000000000000000000000000000000000000000000600052601160045260246000fd5b7f4e487b7100000000000000000000000000000000000000000000000000000000600052601260045260246000fd5b7f4e487b7100000000000000000000000000000000000000000000000000000000600052602260045260246000fd5b7f4e487b7100000000000000000000000000000000000000000000000000000000600052604160045260246000fd5b6000601f19601f8301169050919050565b613ed681613c31565b8114613ee157600080fd5b50565b613eed81613c43565b8114613ef857600080fd5b50565b613f0481613c4f565b8114613f0f57600080fd5b50565b613f1b81613c59565b8114613f2657600080fd5b50565b613f3281613cc1565b8114613f3d57600080fd5b50565b613f4981613ccb565b8114613f5457600080fd5b50565b613f6081613cdb565b8114613f6b57600080fd5b50565b613f7781613ce8565b8114613f8257600080fd5b5056fea264697066735822122089ee19761a7bd0f9274f3d555d222804ae8fb44c2c59b17d9846917c42dcee7764736f6c63430008000033",
  "immutableReferences": {
    "1003": [
      {
        "length": 32,
        "start": 2473
      },
      {
        "length": 32,
        "start": 4548
      }
    ],
    "1005": [
      {
        "length": 32,
        "start": 2587
      },
      {
        "length": 32,
        "start": 4769
      }
    ],
    "1007": [
      {
        "length": 32,
        "start": 2534
      },
      {
        "length": 32,
        "start": 4402
      },
      {
        "length": 32,
        "start": 4716
      }
    ],
    "1268": [
      {
        "length": 32,
        "start": 2258
      },
      {
        "length": 32,
        "start": 4438
      }
    ]
  },
  "source": "// SPDX-License-Identifier: BUSL-1.1\npragma solidity ^0.8.0;\nimport \"../token/ERC20Rewards.sol\";\n\n\ncontract ERC20RewardsMock is ERC20Rewards  {\n\n    constructor(\n        string memory name,\n        string memory symbol,\n        uint8 decimals,\n        IERC20 rewardsToken\n    ) ERC20Rewards(name, symbol, decimals, rewardsToken) { }\n\n    /// @dev Give tokens to anyone.\n    function mint(address to, uint256 amount) public {\n        _mint(to, amount);\n    }\n\n    /// @dev Burn tokens from anyone.\n    function burn(address from, uint256 amount) public {\n        _burn(from, amount);\n    }\n\n    /// @dev Update the rewards per token accumulator.\n    function updateRewardsPerToken() public returns (uint128) {\n        _updateRewardsPerToken();\n        return rewardsPerToken.accumulated;\n    }\n\n    /// @dev Accumulate rewards for an user.\n    function updateUserRewards(address user) public returns (uint128) {\n        return _updateUserRewards(user);\n    }\n}\n",
  "sourcePath": "/Volumes/APPLE HDD/reactprojects/token-reward-safe/contracts/yields-utils-v2/mocks/ERC20RewardsMock.sol",
  "compiler": {
    "name": "solc",
    "version": "0.8.0+commit.c7dfd78e.Emscripten.clang"
  },
  "schemaVersion": "3.4.3",
  "updatedAt": "2021-10-30T22:01:57.758Z",
  "devdoc": {
    "kind": "dev",
    "methods": {
      "DOMAIN_SEPARATOR()": {
        "details": "Return the DOMAIN_SEPARATOR."
      },
      "allowance(address,address)": {
        "details": "See {IERC20-allowance}."
      },
      "approve(address,uint256)": {
        "details": "See {IERC20-approve}."
      },
      "balanceOf(address)": {
        "details": "See {IERC20-balanceOf}."
      },
      "burn(address,uint256)": {
        "details": "Burn tokens from anyone."
      },
      "claim(address)": {
        "details": "Claim all rewards from caller into a given address"
      },
      "getRoleAdmin(bytes4)": {
        "details": "Returns the admin role that controls `role`. See {grantRole} and {revokeRole}. To change a role's admin, use {_setRoleAdmin}."
      },
      "grantRole(bytes4,address)": {
        "details": "Grants `role` to `account`. If `account` had not been already granted `role`, emits a {RoleGranted} event. Requirements: - the caller must have ``role``'s admin role."
      },
      "grantRoles(bytes4[],address)": {
        "details": "Grants all of `role` in `roles` to `account`. If `account` had not been already granted `role`, emits a {RoleGranted} event. Requirements: - For each `role` in `roles`, the caller must have ``role``'s admin role."
      },
      "hasRole(bytes4,address)": {
        "details": "Returns `true` if `account` has been granted `role`."
      },
      "lockRole(bytes4)": {
        "details": "Sets LOCK as ``role``'s admin role. LOCK has no members, so this disables admin management of ``role``. Emits a {RoleAdminChanged} event. Requirements: - the caller must have ``role``'s admin role."
      },
      "mint(address,uint256)": {
        "details": "Give tokens to anyone."
      },
      "permit(address,address,uint256,uint256,uint8,bytes32,bytes32)": {
        "details": "See {IERC2612-permit}. In cases where the free option is not a concern, deadline can simply be set to uint(-1), so it should be seen as an optional parameter"
      },
      "renounceRole(bytes4,address)": {
        "details": "Revokes `role` from the calling account. Roles are often managed via {grantRole} and {revokeRole}: this function's purpose is to provide a mechanism for accounts to lose their privileges if they are compromised (such as when a trusted device is misplaced). If the calling account had been granted `role`, emits a {RoleRevoked} event. Requirements: - the caller must be `account`."
      },
      "revokeRole(bytes4,address)": {
        "details": "Revokes `role` from `account`. If `account` had been granted `role`, emits a {RoleRevoked} event. Requirements: - the caller must have ``role``'s admin role."
      },
      "revokeRoles(bytes4[],address)": {
        "details": "Revokes all of `role` in `roles` from `account`. If `account` had been granted `role`, emits a {RoleRevoked} event. Requirements: - For each `role` in `roles`, the caller must have ``role``'s admin role."
      },
      "setRewards(uint32,uint32,uint96)": {
        "details": "Set a rewards schedule"
      },
      "setRoleAdmin(bytes4,bytes4)": {
        "details": "Sets `adminRole` as ``role``'s admin role. If ``role``'s admin role is not `adminRole` emits a {RoleAdminChanged} event. Requirements: - the caller must have ``role``'s admin role."
      },
      "totalSupply()": {
        "details": "See {IERC20-totalSupply}."
      },
      "transfer(address,uint256)": {
        "details": "See {IERC20-transfer}. Requirements: - the caller must have a balance of at least `wad`."
      },
      "updateRewardsPerToken()": {
        "details": "Update the rewards per token accumulator."
      },
      "updateUserRewards(address)": {
        "details": "Accumulate rewards for an user."
      },
      "version()": {
        "details": "Setting the version as a function so that it can be overriden"
      }
    },
    "version": 1
  },
  "userdoc": {
    "kind": "user",
    "methods": {
      "transferFrom(address,address,uint256)": {
        "notice": "if_succeeds {:msg \"TransferFrom - decrease allowance\"} msg.sender != src ==> old(_allowance[src][msg.sender]) >= wad;"
      }
    },
    "version": 1
  }
}