{
  "contractName": "SafeERC20Namer",
  "abi": [
    {
      "inputs": [
        {
          "internalType": "address",
          "name": "token",
          "type": "address"
        }
      ],
      "name": "tokenSymbol",
      "outputs": [
        {
          "internalType": "string",
          "name": "",
          "type": "string"
        }
      ],
      "stateMutability": "view",
      "type": "function"
    },
    {
      "inputs": [
        {
          "internalType": "address",
          "name": "token",
          "type": "address"
        }
      ],
      "name": "tokenName",
      "outputs": [
        {
          "internalType": "string",
          "name": "",
          "type": "string"
        }
      ],
      "stateMutability": "view",
      "type": "function"
    },
    {
      "inputs": [
        {
          "internalType": "address",
          "name": "token",
          "type": "address"
        }
      ],
      "name": "tokenDecimals",
      "outputs": [
        {
          "internalType": "uint8",
          "name": "",
          "type": "uint8"
        }
      ],
      "stateMutability": "view",
      "type": "function"
    }
  ],
  "bytecode": "0x610fb9610053600b82828239805160001a607314610046577f4e487b7100000000000000000000000000000000000000000000000000000000600052600060045260246000fd5b30600052607381538281f3fe730000000000000000000000000000000000000000301460806040526004361061004b5760003560e01c8063033b9b4f146100505780638ee573ac14610080578063e54f7522146100b0575b600080fd5b61006a600480360381019061006591906109f8565b6100e0565b6040516100779190610b84565b60405180910390f35b61009a600480360381019061009591906109f8565b61011c565b6040516100a79190610bc6565b60405180910390f35b6100ca60048036038101906100c591906109f8565b61022c565b6040516100d79190610b84565b60405180910390f35b606060006100f5836395d89b4160e01b610268565b90506000815114156101125761010a836103dd565b915050610117565b809150505b919050565b60008060008373ffffffffffffffffffffffffffffffffffffffff1663313ce56760e01b604051602401604051602081830303815290604052907bffffffffffffffffffffffffffffffffffffffffffffffffffffffff19166020820180517bffffffffffffffffffffffffffffffffffffffffffffffffffffffff83818316178352505050506040516101b09190610b6d565b600060405180830381855afa9150503d80600081146101eb576040519150601f19603f3d011682016040523d82523d6000602084013e6101f0565b606091505b5091509150818015610203575060208151145b61020e576012610223565b808060200190518101906102229190610a8b565b5b92505050919050565b60606000610241836306fdde0360e01b610268565b905060008151141561025e57610256836103f1565b915050610263565b809150505b919050565b60606000808473ffffffffffffffffffffffffffffffffffffffff1684604051602401604051602081830303815290604052907bffffffffffffffffffffffffffffffffffffffffffffffffffffffff19166020820180517bffffffffffffffffffffffffffffffffffffffffffffffffffffffff83818316178352505050506040516102f59190610b6d565b600060405180830381855afa9150503d8060008114610330576040519150601f19603f3d011682016040523d82523d6000602084013e610335565b606091505b5091509150811580610348575060008151145b156103665760405180602001604052806000815250925050506103d7565b60208151141561039b576000818060200190518101906103869190610a21565b905061039181610405565b93505050506103d7565b6040815111156103c257808060200190518101906103b99190610a4a565b925050506103d7565b60405180602001604052806000815250925050505b92915050565b60606103ea8260066106d4565b9050919050565b60606103fe8260286106d4565b9050919050565b60606000602067ffffffffffffffff81111561044a577f4e487b7100000000000000000000000000000000000000000000000000000000600052604160045260246000fd5b6040519080825280601f01601f19166020018201604052801561047c5781602001600182028036833780820191505090505b5090506000805b60208110156105865760008582602081106104c7577f4e487b7100000000000000000000000000000000000000000000000000000000600052603260045260246000fd5b1a60f81b9050600060f81b817effffffffffffffffffffffffffffffffffffffffffffffffffffffffffffff1916146105725780848481518110610534577f4e487b7100000000000000000000000000000000000000000000000000000000600052603260045260246000fd5b60200101907effffffffffffffffffffffffffffffffffffffffffffffffffffffffffffff1916908160001a905350828061056e90610e26565b9350505b50808061057e90610e26565b915050610483565b5060008167ffffffffffffffff8111156105c9577f4e487b7100000000000000000000000000000000000000000000000000000000600052604160045260246000fd5b6040519080825280601f01601f1916602001820160405280156105fb5781602001600182028036833780820191505090505b50905060005b828110156106c857838181518110610642577f4e487b7100000000000000000000000000000000000000000000000000000000600052603260045260246000fd5b602001015160f81c60f81b828281518110610686577f4e487b7100000000000000000000000000000000000000000000000000000000600052603260045260246000fd5b60200101907effffffffffffffffffffffffffffffffffffffffffffffffffffffffffffff1916908160001a90535080806106c090610e26565b915050610601565b50809350505050919050565b606060006002836106e59190610e6f565b1480156106f25750600082115b80156106ff575060288211155b61073e576040517f08c379a000000000000000000000000000000000000000000000000000000000815260040161073590610ba6565b60405180910390fd5b60008267ffffffffffffffff811115610780577f4e487b7100000000000000000000000000000000000000000000000000000000600052604160045260246000fd5b6040519080825280601f01601f1916602001820160405280156107b25781602001600182028036833780820191505090505b50905060008473ffffffffffffffffffffffffffffffffffffffff16905060005b848110156109085760008160266107ea9190610d6c565b60046107f69190610d12565b83901c905061080b60048260ff16901c610914565b848381518110610844577f4e487b7100000000000000000000000000000000000000000000000000000000600052603260045260246000fd5b60200101907effffffffffffffffffffffffffffffffffffffffffffffffffffffffffffff1916908160001a90535061087f600f8216610914565b8460018461088d9190610c85565b815181106108c4577f4e487b7100000000000000000000000000000000000000000000000000000000600052603260045260246000fd5b60200101907effffffffffffffffffffffffffffffffffffffffffffffffffffffffffffff1916908160001a905350506002816109019190610c85565b90506107d3565b50819250505092915050565b6000600a8260ff1610156109395760308261092f9190610cdb565b60f81b905061094c565b6037826109469190610cdb565b60f81b90505b919050565b600061096461095f84610c12565b610be1565b90508281526020810184848401111561097c57600080fd5b610987848285610df3565b509392505050565b60008135905061099e81610f3e565b92915050565b6000815190506109b381610f55565b92915050565b600082601f8301126109ca57600080fd5b81516109da848260208601610951565b91505092915050565b6000815190506109f281610f6c565b92915050565b600060208284031215610a0a57600080fd5b6000610a188482850161098f565b91505092915050565b600060208284031215610a3357600080fd5b6000610a41848285016109a4565b91505092915050565b600060208284031215610a5c57600080fd5b600082015167ffffffffffffffff811115610a7657600080fd5b610a82848285016109b9565b91505092915050565b600060208284031215610a9d57600080fd5b6000610aab848285016109e3565b91505092915050565b6000610abf82610c42565b610ac98185610c58565b9350610ad9818560208601610df3565b80840191505092915050565b6000610af082610c4d565b610afa8185610c74565b9350610b0a818560208601610df3565b610b1381610f2d565b840191505092915050565b6000610b2b601e83610c63565b91507f41646472657373537472696e675574696c3a20494e56414c49445f4c454e00006000830152602082019050919050565b610b6781610de6565b82525050565b6000610b798284610ab4565b915081905092915050565b60006020820190508181036000830152610b9e8184610ae5565b905092915050565b60006020820190508181036000830152610bbf81610b1e565b9050919050565b6000602082019050610bdb6000830184610b5e565b92915050565b6000604051905081810181811067ffffffffffffffff82111715610c0857610c07610efe565b5b8060405250919050565b600067ffffffffffffffff821115610c2d57610c2c610efe565b5b601f19601f8301169050602081019050919050565b600081519050919050565b600081519050919050565b600081905092915050565b600082825260208201905092915050565b600082825260208201905092915050565b6000610c9082610ddc565b9150610c9b83610ddc565b9250827fffffffffffffffffffffffffffffffffffffffffffffffffffffffffffffffff03821115610cd057610ccf610ea0565b5b828201905092915050565b6000610ce682610de6565b9150610cf183610de6565b92508260ff03821115610d0757610d06610ea0565b5b828201905092915050565b6000610d1d82610ddc565b9150610d2883610ddc565b9250817fffffffffffffffffffffffffffffffffffffffffffffffffffffffffffffffff0483118215151615610d6157610d60610ea0565b5b828202905092915050565b6000610d7782610ddc565b9150610d8283610ddc565b925082821015610d9557610d94610ea0565b5b828203905092915050565b6000610dab82610dbc565b9050919050565b6000819050919050565b600073ffffffffffffffffffffffffffffffffffffffff82169050919050565b6000819050919050565b600060ff82169050919050565b60005b83811015610e11578082015181840152602081019050610df6565b83811115610e20576000848401525b50505050565b6000610e3182610ddc565b91507fffffffffffffffffffffffffffffffffffffffffffffffffffffffffffffffff821415610e6457610e63610ea0565b5b600182019050919050565b6000610e7a82610ddc565b9150610e8583610ddc565b925082610e9557610e94610ecf565b5b828206905092915050565b7f4e487b7100000000000000000000000000000000000000000000000000000000600052601160045260246000fd5b7f4e487b7100000000000000000000000000000000000000000000000000000000600052601260045260246000fd5b7f4e487b7100000000000000000000000000000000000000000000000000000000600052604160045260246000fd5b6000601f19601f8301169050919050565b610f4781610da0565b8114610f5257600080fd5b50565b610f5e81610db2565b8114610f6957600080fd5b50565b610f7581610de6565b8114610f8057600080fd5b5056fea2646970667358221220aa5261f9d45af67d70a7477bd6b6edabb09b60db2b486d3589846fbf3293f9e364736f6c63430008000033",
  "immutableReferences": {},
  "source": "// SPDX-License-Identifier: MIT\n\npragma solidity >=0.5.0;\n\nimport \"../token/IERC20Metadata.sol\";\nimport \"../utils/AddressStringUtil.sol\";\n\n// produces token descriptors from inconsistent or absent ERC20 symbol implementations that can return string or bytes32\n// this library will always produce a string symbol to represent the token\nlibrary SafeERC20Namer {\n    function bytes32ToString(bytes32 x) private pure returns (string memory) {\n        bytes memory bytesString = new bytes(32);\n        uint256 charCount = 0;\n        for (uint256 j = 0; j < 32; j++) {\n            bytes1 char = x[j];\n            if (char != 0) {\n                bytesString[charCount] = char;\n                charCount++;\n            }\n        }\n        bytes memory bytesStringTrimmed = new bytes(charCount);\n        for (uint256 j = 0; j < charCount; j++) {\n            bytesStringTrimmed[j] = bytesString[j];\n        }\n        return string(bytesStringTrimmed);\n    }\n\n    // assumes the data is in position 2\n    function parseStringData(bytes memory b) private pure returns (string memory) {\n        uint256 charCount = 0;\n        // first parse the charCount out of the data\n        for (uint256 i = 32; i < 64; i++) {\n            charCount <<= 8;\n            charCount += uint8(b[i]);\n        }\n\n        bytes memory bytesStringTrimmed = new bytes(charCount);\n        for (uint256 i = 0; i < charCount; i++) {\n            bytesStringTrimmed[i] = b[i + 64];\n        }\n\n        return string(bytesStringTrimmed);\n    }\n\n    // uses a heuristic to produce a token name from the address\n    // the heuristic returns the full hex of the address string in upper case\n    function addressToName(address token) private pure returns (string memory) {\n        return AddressStringUtil.toAsciiString(token, 40);\n    }\n\n    // uses a heuristic to produce a token symbol from the address\n    // the heuristic returns the first 6 hex of the address string in upper case\n    function addressToSymbol(address token) private pure returns (string memory) {\n        return AddressStringUtil.toAsciiString(token, 6);\n    }\n\n    // calls an external view token contract method that returns a symbol or name, and parses the output into a string\n    function callAndParseStringReturn(address token, bytes4 selector) private view returns (string memory) {\n        (bool success, bytes memory data) = token.staticcall(abi.encodeWithSelector(selector));\n        // if not implemented, or returns empty data, return empty string\n        if (!success || data.length == 0) {\n            return \"\";\n        }\n        // bytes32 data always has length 32\n        if (data.length == 32) {\n            bytes32 decoded = abi.decode(data, (bytes32));\n            return bytes32ToString(decoded);\n        } else if (data.length > 64) {\n            return abi.decode(data, (string));\n        }\n        return \"\";\n    }\n\n    // attempts to extract the token symbol. if it does not implement symbol, returns a symbol derived from the address\n    function tokenSymbol(address token) public view returns (string memory) {\n        string memory symbol = callAndParseStringReturn(token, IERC20Metadata.symbol.selector);\n        if (bytes(symbol).length == 0) {\n            // fallback to 6 uppercase hex of address\n            return addressToSymbol(token);\n        }\n        return symbol;\n    }\n\n    // attempts to extract the token name. if it does not implement name, returns a name derived from the address\n    function tokenName(address token) public view returns (string memory) {\n        string memory name = callAndParseStringReturn(token, IERC20Metadata.name.selector);\n        if (bytes(name).length == 0) {\n            // fallback to full hex of address\n            return addressToName(token);\n        }\n        return name;\n    }\n\n    /// @notice Provides a safe ERC20.decimals version which returns '18' as fallback value.\n    /// @param token The address of the ERC-20 token contract.\n    /// @return (uint8) Token decimals.\n    function tokenDecimals(address token) public view returns (uint8) {\n        (bool success, bytes memory data) = token.staticcall(abi.encodeWithSelector(IERC20Metadata.decimals.selector));\n        return success && data.length == 32 ? abi.decode(data, (uint8)) : 18;\n    }\n}\n",
  "sourcePath": "/Volumes/APPLE HDD/reactprojects/token-reward-safe/contracts/yields-utils-v2/token/SafeERC20Namer.sol",
  "compiler": {
    "name": "solc",
    "version": "0.8.0+commit.c7dfd78e.Emscripten.clang"
  },
  "schemaVersion": "3.4.3",
  "updatedAt": "2021-10-30T20:18:31.131Z",
  "devdoc": {
    "kind": "dev",
    "methods": {
      "tokenDecimals(address)": {
        "params": {
          "token": "The address of the ERC-20 token contract."
        },
        "returns": {
          "_0": "(uint8) Token decimals."
        }
      }
    },
    "version": 1
  },
  "userdoc": {
    "kind": "user",
    "methods": {
      "tokenDecimals(address)": {
        "notice": "Provides a safe ERC20.decimals version which returns '18' as fallback value."
      }
    },
    "version": 1
  }
}